:020000040800F2
:1000000028350020A5370008D9270008F92700085F
:10001000B9290008D9290008F929000800000000C2
:10002000000000000000000000000000192A000885
:10003000352A000800000000512A00086D2A000837
:10004000E9370008E9370008E9370008E937000810
:10005000E9370008E9370008E9370008E937000800
:10006000E9370008E9370008E9370008E9370008F0
:10007000E9370008E9370008E9370008E9370008E0
:10008000E9370008E9370008E9370008E9370008D0
:10009000E9370008E9370008E9370008E9370008C0
:1000A000E937000845100008E9370008E93700087B
:1000B000E9370008E9370008E9370008E9370008A0
:1000C000E9370008E9370008E9370008E937000890
:1000D000E93700082D140008D9110008E937000895
:1000E000E9370008E9370008E9370008E937000870
:1000F000E9370008E9370008E9370008E937000860
:10010000E9370008E9370008E9370008E93700084F
:10011000E9370008E9370008E9370008E93700083F
:10012000E9370008E9370008E9370008E93700082F
:1001300000000000000000000000000000000000BF
:1001400000000000000000000000000000000000AF
:10015000000000000000000000000000000000009F
:10016000000000000000000000000000000000008F
:10017000000000000000000000000000000000007F
:10018000000000000000000000000000000000006F
:10019000000000000000000000000000000000005F
:1001A000000000000000000000000000000000004F
:1001B000000000000000000000000000000000003F
:1001C000000000000000000000000000000000002F
:1001D000000000000000000000000000000000001F
:0401E0005FF8E0F1F3
:1001E40080B485B000AF78600023FB6002E0FB6858
:1001F4000133FB607A68FB6813441B78002BF6D14B
:10020400FB6818461437BD4680BC704780B485B07F
:1002140000AF786039607B68002B04D13B68002B09
:1002240001D100233CE07B68002B04D13B68002B08
:1002340001D0012334E07B68002B05D03B68002B00
:1002440002D14FF0FF332BE00023FB6012E07A6809
:10025400FB6813441B7819463A68FB6813441B78FF
:10026400CB1ABB60BB68002B01D0BB6818E0FB68ED
:100274000133FB607A68FB6813441B78002B05D0BC
:100284003A68FB6813441B78002BE0D17A68FB685A
:1002940013441B7819463A68FB6813441B78CB1A3D
:1002A40018461437BD4680BC704700BF80B586B081
:1002B40000AF786000233B617868FFF791FFF86036
:1002C400FB68002B01D10023DBE0FB68012B40F22B
:1002D400B6807B681B78302B40F0B1807B6801339B
:1002E4001B78782B05D07B6801331B78582B40F0A2
:1002F400A68002237B619CE07A687B6913441B78A7
:10030400303B362B00F2908001A252F823F000BF5C
:100314001904000819040008190400081904000845
:100324001904000819040008190400081904000835
:1003340019040008190400082D0400082D040008FD
:100344002D0400082D0400082D0400082D040008C5
:100354002D0400080504000805040008050400082D
:100364000504000805040008050400082D0400081D
:100374002D0400082D0400082D0400082D04000895
:100384002D0400082D0400082D0400082D04000885
:100394002D0400082D0400082D0400082D04000875
:1003A4002D0400082D0400082D0400082D04000865
:1003B4002D0400082D0400082D0400082D04000855
:1003C4002D0400082D0400082D0400082D04000845
:1003D4002D040008F1030008F1030008F1030008EC
:1003E400F1030008F1030008F10300083B691B0155
:1003F40079687A690A4412781344573B3B6115E0E3
:100404003B691B0179687A690A4412781344373BC3
:100414003B610BE03B691B0179687A690A441278F5
:100424001344303B3B6101E000232AE07B69013344
:100434007B617A69FB689A42FFF45EAF20E0002397
:100444007B6119E07A687B6913441B78303B092B84
:100454000DD83A6913469B0013445B0019467A6829
:100464007B6913441B780B44303B3B6101E0002360
:1004740007E07B6901337B617A69FB689A42E1D3C7
:100484003B6918461837BD4680BD00BF80B487B0AD
:1004940000AFF860B9607A60FB683B6100237B6160
:1004A40008E03A697B691344BA68D2B21A707B696E
:1004B40001337B617A697B689A42F2D3FB68184600
:1004C4001C37BD4680BC704780B489B000AFF8606B
:1004D400B9607A60FB68BB61BB687B610023FB6128
:1004E4000AE0BA69FB6913447969FA690A44127823
:1004F4001A70FB690133FB61FA697B689A42F0D395
:10050400FB6818462437BD4680BC704780B487B06A
:1005140000AFF860B9607A60FB707B681B687B6130
:100524007A69BB689A4208D2FA687B691344FA78FC
:100534001A707B695A1C7B681A60002318461C37A2
:10054400BD4680BC704700BF80B586B000AFF86080
:10055400B9607A603B6000237B610BE03A687B6999
:1005640013441B787A68B968F868FFF7CFFF7B6992
:1005740001337B613A687B6913441B78002BEDD10E
:10058400002318461837BD4680BD00BF80B586B02D
:1005940000AFF860B9607A600A220021F868FFF7BA
:1005A40075FF09237B614EE07B680A2B02D0102B78
:1005B40015D043E07B69FA681A44BB687968B3FBD9
:1005C400F1F1786800FB01F15B1ADBB23033DBB286
:1005D4001370BA687B68B2FBF3F3BB6030E0BB68AE
:1005E4007A68B3FBF2F2796801FB02F29B1A092BD9
:1005F4000FD87B69FA681A44BB687968B3FBF1F1D8
:10060400786800FB01F15B1ADBB23033DBB21370A4
:100614000EE07B69FA681A44BB687968B3FBF1F1B0
:10062400786800FB01F15B1ADBB23733DBB213707D
:10063400BA687B68B2FBF3F3BB6001E0002319E006
:100644007B69013B7B617B69002BADDA00237B6115
:1006540008E07B69FA6813441B78302B06D17B6968
:1006640001337B617B69082BF3DD00E000BF7B690C
:10067400FA68134418461837BD4680BD80B590B05B
:1006840000AFF860B9607A603B6000233B62BA68EF
:100694000021F868FFF7FAFE07F114030B2200218A
:1006A4001846FFF7F3FE7868FFF79AFDB863002356
:1006B400FB63E9E07A68FB6B13441B78252B40F05D
:1006C400D680FB6B5A1CBB6B9A420AD17A68FB6BCF
:1006D40013441B7807F12002B968F868FFF716FF86
:1006E400D7E0FB6B01337A6813441B78583B202B0B
:1006F40000F2B18001A252F823F000BFE107000824
:100704005B0800085B0800085B0800085B08000839
:100714005B0800085B0800085B0800085B08000829
:100724005B0800085B08000885070008AD0700089F
:100734005B0800085B0800085B0800085B08000809
:100744005B0800085B0800085B0800085B080008F9
:100754005B0800085B0800085B0800085B080008E9
:100764005B0800085B0800081D0800085B08000817
:100774005B0800085B0800085B080008E107000844
:100784003B6804333B603B68043B1B6887F83730A5
:1007940097F8373007F12002B968F868FFF7B6FE1A
:1007A400FB6B0133FB636CE03B6804333B603B68E9
:1007B400043B1B683B6307F114030A22396B184698
:1007C400FFF7E4FEF86207F12002FB6AB968F868F3
:1007D400FFF7BAFEFB6B0133FB6352E03B68043363
:1007E4003B603B68043B1B68BB6207F114031022A7
:1007F400B96A1846FFF7CAFEF86207F11403023318
:10080400FB6207F12002FB6AB968F868FFF79CFEF7
:10081400FB6B0133FB6334E03B6804333B603B68B0
:10082400043B1B687B627B6AFB62FB6A002B07D17B
:1008340007F120021C4BB968F868FFF785FE06E053
:1008440007F12002FB6AB968F868FFF77DFEFB6BCD
:100854000133FB6315E07A68FB6B13441B7807F1E3
:100864002002B968F868FFF751FE00BF09E07A6812
:10087400FB6B13441B7807F12002B968F868FFF793
:1008840045FEFB6B0133FB63FA6BBB6B9A42FFF4CF
:1008940011AFBB68013BFA68134400221A703B6A2B
:1008A40018464037BD4680BDEC37000880B485B09B
:1008B40000AF7860396000237B810023FB6016E081
:1008C4007B891B0A9BB219467B685A1C7A601B7889
:1008D4004B40DBB20B4A32F813301AB27B891B024D
:1008E4001BB253401BB27B81FB680133FB60FA6887
:1008F4003B689A42E4DB7B8918461437BD4680BCCA
:10090400704700BFF437000880B485B000AF78604A
:100914007B68FB60FB681B68BB60BB6818461437C8
:10092400BD4680BC704700BF90B5ADF64C0D04AF1A
:1009340007F10C03186007F1080319603B1D1A60E6
:100944003B1D1B68029307F108031B68019307F121
:100954000C031B6800931B23C64AC749002000F000
:10096400D5FD07F10C031B68B3F1006F08D307F141
:100974000C023B1D12681B681344C04A934215D9EC
:1009840007F10C023B1D12681B68D11807F10C0219
:10099400BB4B01934FF0006300930B461268B949B7
:1009A400012000F0B3FD4FF0FF33D6E202F0F0F97E
:1009B400342002F089FA07F10C031B68C3F30A031D
:1009C400C7F82C38D7F82C38002B00F0DA8007F160
:1009D4001003C7F8283807F11003C7F8243807F1C3
:1009E40008031B68C7F820380023C7F834381AE016
:1009F400D7F834389B00D7F82828D41807F10C030B
:100A04001B6823F4FF6323F00703D7F8342892000C
:100A140013441846FFF778FF03462360D7F83438A9
:100A24000133C7F83438D7F83438B3F5007FDFD34F
:100A340007F10C031B6823F4FF6323F00703184634
:100A440002F0C6F90346C7F81C380023C7F8343847
:100A540013E0D7F82C28D7F834381344D7F82428CF
:100A64001344D7F82018D7F834280A4412781A7097
:100A7400D7F834380133C7F83438D7F82C38C3F5ED
:100A84000062D7F834389A42E3D80023C7F83438E0
:100A940072E007F10C031B6823F4FF6323F00703E0
:100AA400D7F8342892009818D7F834389B00D7F830
:100AB400282813441B68194602F0BCF90346C7F8FA
:100AC4001C38D7F81C38042B1BD007F10C031B6807
:100AD40023F4FF6323F00703D7F83428920099180E
:100AE400D7F834389B00D7F8282813441A68D7F865
:100AF4001C38009313460A466349012000F006FDA2
:100B040027E207F10C031B6823F4FF6323F00703B8
:100B1400D7F83428920013441846FFF7F5FEC7F8B7
:100B24001808D7F834389B00D7F8282813441B68D2
:100B3400D7F818289A421AD007F10C031B6823F43B
:100B4400FF6323F00703D7F8342892009918D7F8E5
:100B540034389B00D7F8282813441B680093D7F82F
:100B640018380A464949012000F0D0FCF1E1D7F8D1
:100B740034380133C7F83438D7F83438B3F5007F44
:100B840087D307F10C023B1D12681B681344C3F39F
:100B94000A03C7F82C38D7F82C38002B00F0FD8056
:100BA40007F11003C7F8283807F11003C7F82438F1
:100BB4003B1D1A68D7F82C38D31A07F108021268BB
:100BC4001344C7F820380023C7F834381DE0D7F899
:100BD40034389B00D7F82828D41807F10C023B1DA1
:100BE40012681B68134423F4FF6323F00703D7F848
:100BF4003428920013441846FFF786FE0346236008
:100C0400D7F834380133C7F83438D7F83438B3F563
:100C1400007FDCD307F10C023B1D12681B681344F0
:100C240023F4FF6323F00703184602F0D1F80346C8
:100C3400C7F81C380023C7F8343810E0D7F8242844
:100C4400D7F834381344D7F82018D7F834280A448E
:100C540012781A70D7F834380133C7F83438D7F813
:100C64003428D7F82C389A42E8D30023C7F834380C
:100C74008DE000BFD83A0008F4390008FFFF0708E8
:100C840000000808043A0008403A0008643A0008E2
:100C940007F10C023B1D12681B68134423F4FF6325
:100CA40023F00703D7F8342892009818D7F834387B
:100CB4009B00D7F8282813441B68194602F0BAF899
:100CC4000346C7F81C38D7F81C38042B1ED007F18C
:100CD4000C023B1D12681B68134423F4FF6323F0CA
:100CE4000703D7F8342892009918D7F834389B00B2
:100CF400D7F8282813441A68D7F81C3800931346E9
:100D04000A469849012000F001FC22E107F10C0297
:100D14003B1D12681B68134423F4FF6323F007038D
:100D2400D7F83428920013441846FFF7EDFDC7F8AE
:100D34001808D7F834389B00D7F8282813441B68C0
:100D4400D7F818289A421DD007F10C023B1D1268EF
:100D54001B68134423F4FF6323F00703D7F83428F4
:100D640092009918D7F834389B00D7F828281344F0
:100D74001B680093D7F818380A467B49012000F015
:100D8400C5FBE6E0D7F834380133C7F83438D7F870
:100D94003438B3F5007FFFF47BAF07F10C031B6815
:100DA400C3F30A03002B09D007F10C031B6823F4D7
:100DB400FF6323F0070303F5006302E007F10C036C
:100DC4001B68C7F8143807F10C023B1D12681B6836
:100DD400134423F4FF6323F00703D7F814289B1A62
:100DE400DB0AC7F8103807F108031A6807F10C0387
:100DF4001B68C3F30A03D31A03F50063C7F8283842
:100E04000023C7F8303899E0D7F83038DA02D7F839
:100E140014381344184601F0DBFF0346C7F81C38A6
:100E24000023C7F834387EE0D7F830385A02D7F8B0
:100E3400343813449A00D7F81438D018D7F8303817
:100E4400DA02D7F8343813449B00D7F8282813441F
:100E54001B68194601F0EEFF0346C7F81C38D7F8A3
:100E64001C38042B1ED0D7F830385A02D7F834383F
:100E740013449A00D7F81438D118D7F83038DA0266
:100E8400D7F8343813449B00D7F8282813441A6839
:100E9400D7F81C38009313460A463249012000F063
:100EA40035FB56E0D7F830385A02D7F834381344B3
:100EB4009A00D7F8143813441846FFF725FDC7F8ED
:100EC4001808D7F83038DA02D7F8343813449B00BE
:100ED400D7F8282813441B68D7F818289A421DD03D
:100EE400D7F830385A02D7F8343813449A00D7F870
:100EF4001438D118D7F83038DA02D7F83438134414
:100F04009B00D7F8282813441B680093D7F8183897
:100F14000A461549012000F0F9FA1AE0D7F83438E6
:100F24000133C7F83438D7F83438B3F5007FFFF409
:100F34007BAFD7F830380133C7F83038D7F83028CA
:100F4400D7F810389A42FFF45FAF01F033FF002363
:100F540003E001F02FFF4FF0FF33184607F63C077C
:100F6400BD4690BD403A0008643A000880B487B09A
:100F740000AF786000237B6115E000233B610CE047
:100F84000023FB6003E000BFFB680133FB60FB68E8
:100F9400092BF8D93B6901333B613B69002BEFD046
:100FA4007B6901337B617A697B689A42E5D300BF30
:100FB4001C37BD4680BC704780B582B000AF4FF48B
:100FC400E06002F0C7F819233B7100237B7103230F
:100FD400BB710123FB713B1D184602F0CDF800BF25
:100FE4000837BD4680BD00BF80B584B000AF012185
:100FF4004FF4006002F072F840F2E7333B8147237C
:10100400BB8000237B810023FB8000233B733B1DBB
:1010140019460A4802F0BAFA0121084802F076FBA0
:1010240001220121054802F04DFB0121034802F091
:1010340029FB00BF1037BD4680BD00BF002C014016
:1010440098B500AF01210A4802F070FB0346002B5B
:101054000BD0084B18CB013344F10004054AC2E914
:1010640000340121024802F08BFB00BF98BD00BF91
:10107400002C0140A000002080B500AFFFF79CFFCA
:10108400FFF7B2FF00BF80BD80B582B000AF03465A
:101094000A46FB711346BB8045F2555002F0CEF868
:1010A400FB79184602F0DAF8BB88184602F0E6F835
:1010B40002F0F4F802F0FEF800BF0837BD4680BD28
:1010C40080B500AF01210420FFF7DEFF00BF80BD23
:1010D40080B582B000AF78600B46FB70FB789BB2A2
:1010E4001946786802F014FA00BF8021786802F08B
:1010F40031FA0346002BF8D000BF0837BD4680BD47
:1011040080B584B000AF786039600023FB603A6832
:10111400FB6813441B780A2B03D10D217868FFF771
:10112400D7FF3A68FB6813441B7819467868FFF7C1
:10113400CFFFFB680133FB603A68FB6813441B78FC
:10114400002BE4D100BF4021786802F003FA034683
:10115400002BF8D000BF1037BD4680BD80B582B0EB
:1011640000AF0346FB71FB7919460348FFF7B0FF54
:1011740000BF0837BD4680BD0044004080B582B042
:1011840000AF786079680348FFF7BAFF00BF0837FB
:10119400BD4680BD004400400FB480B582B000AFAE
:1011A40007F114037B603A697B684FF48071084847
:1011B400FFF764FA03463B600548FFF7DFFF3B682F
:1011C40018460837BD46BDE8804004B0704700BFEC
:1011D400BC01002080B582B000AF514802F0AAF9EA
:1011E4000346DBB2FB80FB88D3224E494E4800F015
:1011F400F3F84E4B00221A700FE04C4B1B78194643
:101204004A4B1B7801334A4AD25C494B5A54474BE8
:101214001B780133DAB2454B1A70444B1B78032B0D
:10122400EBD9FB88DAB2424B1A71414B1B78722B13
:1012340015D13F4B5B78652B11D13D4B9B78732BBC
:101244000DD13B4BDB78652B09D1394B1B79742BC2
:1012540005D137493748FFF79FFFFFF731FF364B7A
:101264001B68002B02D0012B31D056E0FB880A2BDF
:1012740050D0324B1B68FF2B09D1FB880D2B06D0B5
:101284002F48FFF77BFF2D4B00221A6045E0FB88B7
:101294000D2B0BD1294B1B682A4A0021D1542A4B10
:1012A400284A1A60254B00221A6036E0234B1B683B
:1012B400FA88D1B2234AD154204B1B6801331F4A08
:1012C4001360FB88DBB21846FFF748FF25E01F4B8D
:1012D4001B680133DAB21E4B1B689A4203D11D48C6
:1012E400FFF74CFF19E0FB8819461B4800F074F81F
:1012F400164B1B685A1C15490A60FA88D1B2114A68
:10130400D154124B1B68B3F5807F05D10F4B0022DB
:101314001A6001E000BF00E000BF0837BD4680BD91
:1013240000440040543B0008E43A0008BC0200209A
:10133400C0020020F03A0008A8000020AC00002001
:10134400043B0008B8000020CC080020B4000020B2
:10135400B0000020143B0008203B000880B400AF1C
:10136400064B1A68064B1B689A4201D1002300E021
:1013740001231846BD4680BC704700BFB000002062
:10138400B400002080B582B000AFFFF7E7FF03464A
:10139400012B16D10D4B1B685A1C0C490A600C4AD0
:1013A400D35CFB71FB7919460A4800F015F8074B2A
:1013B4001B68B3F5807F02D1044B00221A60FB79CD
:1013C40000E0002318460837BD4680BDB000002069
:1013D400B8000020343B00080FB480B582B000AFE1
:1013E4000E4B1B68002B01D1002310E007F11403FE
:1013F4007B603A697B684FF480710948FFF73EF9D6
:1014040003463B6006490748FFF77AFE3B681846E7
:101414000837BD46BDE8804004B07047B8010020DD
:10142400C80200200038014080B500AF064802F031
:1014340081F80346DBB240F28B1204490448FFF7FB
:10144400CBFF00BF80BD00BF00380140683B0008EF
:10145400483B000880B586B000AF0121042001F0AC
:101464003DFE01214FF4003001F056FE0423BB82FF
:101474001823FB750323BB7507F1140319461E4893
:1014840001F0CAFB0823BB820423FB7507F1140394
:101494001946194801F0C0FB4FF4E1337B60002387
:1014A4003B8100237B810023BB8100233B820C23EF
:1014B400FB813B1D1946114801F008FF4FF4A06061
:1014C40001F048FE26233B7001237B700123BB708F
:1014D4000123FB703B46184601F04EFE012240F208
:1014E4002551064801F0CCFF0121044801F0A8FF72
:1014F40000BF1837BD4680BD0008014000440040CD
:1015040080B500AFFFF7A6FF00BF80BD0EB480B565
:10151400B7B000AF786007F10803C822002118466D
:10152400FEF7B4FF07F1E803C7F8D430D7F8E42096
:1015340007F10800D7F8D430C821FFF79FF8034615
:10154400C7F8D030184B1B687A689A4204D807F160
:1015540008031846FFF712FE144B1B68C3F57F738C
:101564000333D7F8D020934202D2104B00221A60E2
:101574000E4B1B680E4A9818D7F8D0305A1C07F146
:1015840008031946FEF7A0FF084B1A68D7F8D030B5
:1015940013440133054A136000231846DC37BD4663
:1015A400BDE8804003B0704700000020C808002058
:1015B400C804002080B485B000AF786039607B68CF
:1015C400FB60FB683A681A6000BF1437BD4680BCF4
:1015D400704700BF80B485B000AF78607B68FB6063
:1015E400FB681B68BB60BB6818461437BD4680BCEB
:1015F400704700BF80B582B000AF0A4B5B681846E5
:10160400FEF754FE78607868FFF7E4FF38603B68C3
:101614007A6805490020FFF779FF00231846083748
:10162400BD4680BDD0080020D03C000880B582B003
:1016340000AF0D4B5B681846FEF738FE78600A4B26
:101644009B681846FEF732FE386039687868FFF701
:10165400B1FF7B683A6805490020FFF757FF002374
:1016640018460837BD4680BDD0080020E03C00087D
:1016740090B58DB004AF1E4B5B681846FEF716FE9E
:10168400F8611B4B9B681846FEF710FEB861184BB7
:10169400DB681846FEF70AFE7861154B1B6918468D
:1016A400FEF704FE3861124B5B691846FEF7FEFD37
:1016B400F860FB6943F00103BB60BC68FB683A69EE
:1016C4007969B869A04778607B680393FB680293E3
:1016D4003B6901937B690093BB69FA690549002062
:1016E400FFF714FF7B6818462437BD4690BD00BF42
:1016F400D0080020F43C000880B584B000AF204B33
:101704005B681846FEF7D2FDB8601D4B9B6818460F
:10171400FEF7CCFD7860BB683B603A68194900204D
:10172400FFF7F4FE0023FB601CE0FB685A1CFA6020
:101734009B003A6813441B681A4613490020FFF7BC
:10174400E5FEFB68002B0DD0FB6803F00303002BC0
:1017540008D1FB689B003A6813441A460B490020E1
:10176400FFF7D4FEFA687B689A42DED3084900206A
:10177400FFF7CCFE002318461037BD4680BD00BFDE
:10178400D0080020243D0008303D0008383D000802
:10179400443D000880B500AF00F0B0F90346002BCB
:1017A40003D000F0B3F9034601E04FF0FF331846CD
:1017B40080BD00BF80B5ADF6280D00AF4FF0FF33FC
:1017C400C7F81C380023C7F82038464B5B68184616
:1017D400FEF76CFD0346C7F818380023C7F8243811
:1017E400414B01221A600223C7F8083807F5016249
:1017F40007F604031146184600F03EFCC7F8140827
:10180400D7F81438002B49D139E0D7F81838D7F86D
:1018140020281344C7F81C38D7F82428D7F81438DC
:101824001344C7F82438D7F81438D7F820281344B9
:10183400C7F82038D7F81C38B3F1005F0DD3D7F8B8
:101844001C382A4A934208D8D7F81C38D7F81428E9
:10185400391D1846FEF738FE11E0D7F81C38B3F1ED
:10186400006F0CD3D7F81C38214A934207D8D7F815
:1018740014283B1D1946D7F81C08FFF755F807F53F
:1018840001623B1D4FF40061184600F0BFFCC7F82D
:101894001408D7F81438002BB7DC09E0D7F810384F
:1018A400184600F0AFFE034619461248FFF774FCD1
:1018B40007F50163184600F011FE0F49002000F0FF
:1018C40039FED7F82428D7F824180C48FFF764FC0D
:1018D400054B00221A60D7F81838184607F628076F
:1018E400BD4680BDD0080020A8000020FFFF0020D6
:1018F400FFFF0708483D0008991700084C3D000801
:1019040080B582B000AF00237B6018E010497A688C
:1019140013465B0013449B000B4418680C497A6817
:1019240013465B0013449B000B4408331B680246B8
:1019340008490020FFF7EAFD7B6801337B607B6880
:10194400052BE3D9002318460837BD4680BD00BFE8
:1019540004000020A03D000880B584B000AF78608A
:101964001C2200212848FEF791FD0023BB600023C0
:10197400FB6024E0FB680133FB607A68FB68134476
:101984001B78202BF6D0BB685A1CBA607968FA68B9
:101994000A441D4941F82320BB68072B16D002E0F6
:1019A400FB680133FB607A68FB6813441B78202BC7
:1019B40005D07A68FB6813441B78002BF0D17A6851
:1019C400FB6813441B78002BD7D100E000BF002331
:1019D400FB600DE07A68FB6813441B78202B04D16C
:1019E4007A68FB68134400221A70FB680133FB60B9
:1019F4007A68FB6813441B78002BEBD1002318464C
:101A04001037BD4680BD00BFD008002080B584B02B
:101A140000AF78600023FB6013E00E49FA681346B8
:101A24005B0013449B000B441B6879681846FEF75F
:101A3400EDFB0346002B01D1FB6807E0FB68013393
:101A4400FB60FB68052BE8D94FF0FF3318461037CD
:101A5400BD4680BD0400002080B586B000AF78602C
:101A640000237B617868FEF7BBFB38613B69002B80
:101A740002D100237B612BE01A490020FFF746FDC9
:101A84007868FFF769FF184B1B681846FFF7BEFF1D
:101A94000346FB60FB68B3F1FF3F09D1124B1B689F
:101AA4001A4612490020FFF731FD00237B610FE045
:101AB4000F49FA6813465B0013449B000B4404333C
:101AC4001B68984778617A690A490020FFF71EFD70
:101AD40009490020FFF71AFD7B6918461837BD46EF
:101AE40080BD00BF443D0008D0080020AC3D000884
:101AF40004000020C03D0008D03D000880B500AFC0
:101B0400FFF72CFC0346184680BD00BF80B500AF2C
:101B1400FFF738FC0346184680BD00BF80B582B08D
:101B240000AF0346FB71FB791846FFF717FB00BFB4
:101B34000837BD4680BD00BF80B584B000AF034602
:101B44003960FB710023FB6005E01420FFF70EFAF7
:101B5400FB680133FB60FFF7D1FF0346002B03D181
:101B6400FB680A4A9342F0D9FFF7C8FF0346002BEB
:101B740007D0FFF7CBFF0346DAB23B681A700123A4
:101B840000E0002318461037BD4680BD9F86010043
:101B940080B582B000AF03460A46FB711346BB71A1
:101BA400BB791846FFF7BAFF00BF0837BD4680BDB2
:101BB40080B483B000AF0346FB71FB792F2B02D9AD
:101BC400FB79392B0BD9FB79402B02D9FB79462BB6
:101BD40005D9FB79602B04D9FB79662B01D8012345
:101BE40000E0002318460C37BD4680BC704700BF98
:101BF40080B485B000AF0346FB710023FB60FB7922
:101C04002F2B06D9FB79392B03D8FB79303BFB60AA
:101C140012E0FB79602B06D9FB79662B03D8FB799C
:101C2400573BFB6008E0FB79402B05D9FB79462B39
:101C340002D8FB79373BFB60FB6818461437BD4676
:101C440080BC704780B483B000AF0346FB71FB795E
:101C5400402B05D9FB795A2B02D8FB792033FB7131
:101C6400FB7918460C37BD4680BC704780B58AB0F6
:101C740000AFF860B9607A603B6001237B620A239D
:101C84003B620023FB6102E0FB680133FB60FB68FD
:101C94001B78202BF8D04BE07B6A002B11D0FB681B
:101CA4001B78302B0DD1FB6801331B781846FFF7E6
:101CB400C9FF0346782B04D110233B62FB6802332F
:101CC400FB6000237B62FB685A1CFA601B78FB757F
:101CD400FB7D1846FFF76CFF0346002B10D0FB7DFD
:101CE4001846FFF785FF38613A693B6A9A4207DA7A
:101CF4003B6AFA6902FB03F23B691344FB6117E098
:101D04003B68002B12D03B68BB6102E0BB69013326
:101D1400BB61BB691B78002B04D0BB691B78FA7DBF
:101D24009A42F3D1BB691B78002B06D100230FE044
:101D3400FB681B78002BAFD100E000BFBB68FA69D9
:101D44001A607B68002B02D07B68FA681A60012352
:101D540018462837BD4680BD80B582B000AF094B18
:101D64001B681B68DBB2FA1C11461846FFF7E4FE39
:101D740078607B68002B00D0F1E700BF0837BD46D0
:101D840080BD00BFEC08002080B588B000AF002300
:101D9400FB6100237B6100233B61B04BD3F83034FB
:101DA400002B00F09180AD4B1B681B68DBB2062151
:101DB4001846FFF7EDFEA94B0022C3F8302483E058
:101DC400A64B1B681B68DBB2FA1D11461846FFF7C9
:101DD400B3FEB860BB68002B6ED03B6901333B6136
:101DE400FB79013B172B6FD801A252F823F000BFF7
:101DF400551E0008631E0008CD1E00089D1E000825
:101E0400CD1E0008CD1E0008CD1E0008CD1E000802
:101E1400CD1E0008CD1E0008CD1E0008CD1E0008F2
:101E2400CD1E0008CD1E0008CD1E0008CD1E0008E2
:101E3400CD1E0008CD1E0008CD1E0008CD1E0008D2
:101E4400CD1E0008CD1E0008CD1E00087D1E000812
:101E5400824BD3F81C340133804AC2F81C34FB791A
:101E6400022B06D17D4BD3F8203401337B4AC2F8D0
:101E740020340123FB6127E0784BD3F82434013369
:101E8400764AC2F824347B6901337B617B69032B76
:101E940010D16FF00403DCE03B69012B14D16F4BCC
:101EA4001B681B68DBB206211846FFF771FE6FF052
:101EB4000303CEE000BF07E0FFF74EFF6848FFF7DB
:101EC40055F86FF00203C4E0FB69002B3FF478AFD0
:101ED400624B1B681B68DBB262491846FFF72CFE95
:101EE400B860BB68002B02D16FF00203B1E05B4B1A
:101EF4001B681B68DBB25C491846FFF71DFEB8601F
:101F0400BB68002B02D16FF00203A2E0FB79012B26
:101F140001D1802301E04FF48063504AC2F81034A9
:101F24004E4B524AC3F804240023BB611AE04B4BC6
:101F34001B681B68DBB2FA1D11461846FFF7FCFD4F
:101F4400B860BB68002B07D0F979444ABB691344D5
:101F540004330A461A7002E06FF0020379E0BB69A9
:101F64000133BB613D4BD3F81024BB699A42DEDCDC
:101F74003A4B1B681B68DBB23D491846FFF7DCFD92
:101F8400B860BB68002B02D16FF0020361E0334BF1
:101F9400D3F82834002B0ED0304B1B681B68DBB2FF
:101FA40034491846FFF7C8FDB860BB68002B02D15E
:101FB4006FF002034DE0294B93F80824274B93F864
:101FC40009345340DBB2FF2B04D0FFF7C5FE6FF09A
:101FD40005033EE0214BD3F82834002B16D01F4BC9
:101FE400D3F8103419462148FEF760FC0346FB8100
:101FF400FA891A4B93F80A341B02184991F80B1406
:102004000B439A4224D06FF0060322E00023FB81A5
:102014000023BB610BE0114ABB69134404331B78F2
:102024009AB2FB891344FB81BB690133BB610B4B3F
:10203400D3F81024BB699A42EDDC084B93F80A34B8
:102044001A46FB89DBB29A4202D06FF0060300E025
:10205400002318462037BD4680BD00BFEC08002091
:1020640090D00300F40C0020F50C0020F0080020B0
:10207400F60C0020F70C002080B586B000AF786025
:10208400396000237B6114233B610A23FB60002336
:10209400BB605A4A07F108031360584B0022C3F887
:1020A4001024564B0122C3F82824544B0022C3F8B1
:1020B4002C24524B0022C3F830247B685B684F4ABF
:1020C400C2F814344D4B0022C3F818244B4B0022A1
:1020D400C3F81C24494B0022C3F82024474B002298
:1020E400C3F82424454B0022C3F83824434B002270
:1020F400C3F83424414B1B681B68DAB23F4BD3F856
:102104002834002B01D0432300E015231946104640
:10211400FFF73EFD394BD3F81434012B5DD1374B17
:10212400012283F80C24002363E0FFF72DFE78617D
:102134007B69002B25D1314B93F80834002B16D141
:1021440000BF2E4BD3F804345A1C2C49C1F8042484
:102154001B78002BF5D1294BD3F80404284B00221B
:102164002849FFF783FD254B0122C3F83024234B74
:10217400012283F80C24214B0022C3F810240023ED
:1021840037E07B6913F1030F23D1FB68013BFB604C
:10219400FB68002B03DC194B0022C3F828241A48DF
:1021A400FEF7E4FE154B1B681B68DAB2134BD3F839
:1021B4002834002B01D0432300E015231946104690
:1021C400FFF7E6FC0D4BD3F8183401330B4AC2F881
:1021D40018347B6913F1050F05D03B695A1E3A6127
:1021E400002BA2DC00E000BF3B687A691A604FF064
:1021F400FF3318461837BD4680BD00BFEC080020E9
:10220400E83D0008200D002020A1070080B588B01B
:1022140000AFF860B9607A600023BB616FF004031B
:10222400FB614AE1AC4BD3F81034002B40F012812F
:1022340014233B61F7E0FFF7A7FDF861FB69002B6E
:1022440040F09E80A44B93F80824A34B93F80C34DD
:102254009A427ED1A04B0122C3F830249E4B93F8BE
:102264000C340133DAB29C4B83F80C249A4BD3F828
:102274001434012B04D0984BD3F83434002B38D1C8
:10228400954BD3F80424944BD3F81034013B1344F6
:102294001B781A2B2DD1904BD3F804248E4BD3F8F2
:1022A4001034023B13441B781A2B22D18A4BD3F8E7
:1022B4000424894BD3F81034033B13441B781A2BA2
:1022C40017D106E0844BD3F81034013B824AC2F89C
:1022D4001034814BD3F81034002B0AD07E4BD3F842
:1022E40004247D4BD3F81034013B13441B781A2B80
:1022F400E8D0794BD3F81434012B00F09B80764B53
:10230400D3F83434002B00F09580734BD3F8383471
:10231400714AD2F8102413446F4AC2F838346E4B11
:10232400D3F838246C4BD3F834349A4240F2828088
:10233400694BD3F810341946674BD3F83424664BF1
:10234400D3F83834D31A0B441A46634BC3F8102419
:1023540070E0614B93F808341A465F4B93F80C34E1
:10236400013BDBB29A4208D15B4B1B681B68DBB2B2
:1023740006211846FFF70CFC55E06FF00703FB61DC
:10238400FB6913F1050F57D0FB6913F1040F33D127
:10239400514B1B681B68DBB206211846FFF7F8FB9C
:1023A4004D4BD3F81434022B21D14B4B1B681B68C3
:1023B400DAB2494BD3F82834002B01D0432300E090
:1023C400152319461046FFF7E3FB434BD3F81834A3
:1023D4000133414AC2F81834FFF7D6FCF8613E4B8A
:1023E4001B681B68DBB206211846FFF7D1FB3A4B8A
:1023F4000122C3F82C2420E0374B1B681B68DAB297
:10240400354BD3F82834002B01D0432300E01523A7
:1024140019461046FFF7BCFB2F4BD3F81834013391
:102424002D4AC2F818343B695A1E3A61002B3FF713
:1024340002AF02E000BF00E000BFFB69002B09DA35
:102444007B68FA691A60244B4FF0FF32C3F81024FA
:10245400BB693CE0204BD3F82C34002B2DD11E4B10
:10246400D3F810347B61BA687B699A4201DABB689D
:102474007B61194BD3F804347A691946F868FEF77E
:1024840023F8BA687B69D31ABB607B69FA68134482
:10249400FB60BA697B691344BB610F4BD3F810240A
:1024A4007B69D31A0C4AC2F810340B4BD3F80424BA
:1024B4007B691344084AC2F80434074BD3F82C341C
:1024C400002B03D1BB68002B3FF7ACAEBB691846A9
:1024D4002037BD4680BD00BFEC08002090B585B014
:1024E40002AF78600F4BD3F82834002B01D00E498B
:1024F40000E00E490B4BD3F81C040A4BD3F82044DC
:10250400084BD3F82434074AD2F8182401920093D4
:10251400234602460648FEF73FFE00BF0C37BD4681
:1025240090BD00BFEC080020EC3D0008F03D000821
:10253400F83D000880B584B000AF786039607B68EE
:10254400002B4DD02D4BD3F81434013B012B50D824
:102554002A4B1B681B68DBB218211846FFF718FBCF
:10256400264B1B681B68DBB218211846FFF710FBCB
:10257400224B1B681B68DBB218211846FFF708FBC7
:102584001E4B1B681B68DBB218211846FFF700FBC3
:102594001A4B1B681B68DBB208211846FFF7F8FAD0
:1025A400164B1B681B68DBB208211846FFF7F0FACC
:1025B400124B1B681B68DBB208211846FFF7E8FAC8
:1025C4000E4B1B681B68DBB208211846FFF7E0FAC4
:1025D400FFF7C2FB094B0122C3F82C2400BF08E01B
:1025E4003B689847F860FB68002BF9DA0448FEF76B
:1025F400BDFC00BF1037BD4680BD00BFEC08002005
:1026040090D0030080B483B000AF78607B68083357
:10261400072B23D801A252F823F000BF5D2600083F
:102624005926000855260008512600084D260008A2
:102634004926000845260008412600080A4B0EE0FA
:102644000A4B0CE00A4B0AE00A4B08E00A4B06E08E
:102654000A4B04E00A4B02E00A4B00E00A4B18461E
:102664000C37BD4680BC70473C3E0008503E000815
:10267400703E00087C3E0008883E0008943E000836
:10268400A43E0008B83E0008D03E000880B485B0DF
:1026940000AF78607B68FB60FB681B68BB60BB684D
:1026A40018461437BD4680BC704700BFB0B582B031
:1026B40002AF1148FFF7EAFF0346184600F09CFA00
:1026C40004460E48FFF7E2FF0346184600F094FA6A
:1026D40005460B48FFF7DAFF0346184600F08CFA6C
:1026E400034600932B46224606490020FEF70EFFC0
:1026F40000BFBD46B0BD00BFE8F7FF1FECF7FF1FEA
:10270400F0F7FF1FF43E000880B582B000AF234A03
:10271400224B1B6843F008031360214A204B1B68BB
:1027240023F00F0313601E4A1D4B1B6843F0010383
:1027340013601C4A1B4B1B6823F001031360FEF754
:10274400DFFE1948FEF728FDFEF796FC174A1849E4
:102754000020FEF7DBFEFFF7A9FF164A164B03F134
:10276400604313447B60154B3B60154B7A681549F5
:102774000020FEF7CBFE144B3A6814490020FEF704
:10278400C5FE134B1B68002BFBD0114B1B6818466E
:10279400FFF762F90E4B00221A60F2E718100240AC
:1027A400000C01400C0C0140043F00084C000020C8
:1027B400143F0008A00000208841000828350020AC
:1027C400000008081C3F0008000001203C3F0008EE
:1027D400CC08002080B500AF4623044A04490020F9
:1027E400FEF794FEFEF76CFC00BF80BDEC400008D1
:1027F4005C3F00082DE9F04F6C46534A53490020D2
:10280400FEF784FE236C1A4651490020FEF77EFE33
:10281400E36B1A464F490020FEF778FEA36B1A4675
:102824004D490020FEF772FE636B1A464B490020A7
:10283400FEF76CFE236B1A4649490020FEF766FE3C
:10284400E36A1A4647490020FEF760FEA36A1A4667
:1028540045490020FEF75AFE636A1A4643490020A0
:10286400FEF754FE236A1A4641490020FEF74EFE45
:10287400E3691A463F490020FEF748FEA3691A4659
:102884003D490020FEF742FE63691A463B49002099
:10289400FEF73CFE23691A4639490020FEF736FE4E
:1028A400E3681A4637490020FEF730FEA3681A464B
:1028B40035490020FEF72AFE63681A463349002092
:1028C400FEF724FE23681A4631490020FEF71EFE57
:1028D400304BDB6A1A4630490020FEF717FE2D4BB9
:1028E4009B6A1A462D490020FEF710FE294B9B6A6D
:1028F400DEB2284B9B6A03F47F431D0A254B9B6A77
:102904001B0C1B041C0C324625490020FEF7FEFD5F
:102914002A4624490020FEF7F9FD224622490020D8
:10292400FEF7F4FD1B4B5B6B1A4620490020FEF7B3
:10293400EDFD184B9B6B1A461D490020FEF7E6FD82
:10294400FEF7BEFBFEE700BFF8400008643F000846
:102954006C3F00087C3F00088C3F00089C3F000847
:10296400AC3F0008BC3F0008CC3F0008DC3F000837
:10297400EC3F0008FC3F00080C4000081C40000825
:102984002C4000083C4000084C4000085C40000813
:102994006C40000800ED00E07C4000088C4000081A
:1029A4009C400008AC400008BC400008CC40000833
:1029B400DC40000880B500AF7F23044A04490020AE
:1029C400FEF7A4FDFEF77CFBFEE700BF0C41000808
:1029D4005C3F000880B500AF8A23044A0449002004
:1029E400FEF794FDFEF76CFBFEE700BF20410008F4
:1029F4005C3F000880B500AF9423044A04490020DA
:102A0400FEF784FDFEF75CFBFEE700BF34410008DF
:102A14005C3F000880B500AF9D23034A03490020B2
:102A2400FEF774FD00BF80BD484100085C3F00080C
:102A340080B500AFA223034A03490020FEF766FDD8
:102A440000BF80BD544100085C3F000880B500AF62
:102A5400A723034A03490020FEF758FD00BF80BDA9
:102A6400684100085C3F000880B500AFAC23034A0E
:102A740003490020FEF74AFD00BF80BD78410008ED
:102A84005C3F000880B500AF154A154B1B6843F046
:102A9400010313601249124B5A68124B13404B60E6
:102AA4000F4A0F4B1B6823F0847323F480331360A5
:102AB4000B4A0B4B1B6823F480231360084A084B12
:102AC4005B6823F4FE035360054B4FF41F029A60C6
:102AD40000F00CF8044B4FF000629A6000BF80BD18
:102AE400001002400000FFF800ED00E080B500AFE8
:102AF40000F002F800BF80BD80B483B000AF0023B3
:102B04007B6000233B603A4A394B1B6843F48033B3
:102B14001360374B1B6803F400333B607B6801335D
:102B24007B603B68002B03D17B68B3F5A06FF0D1C9
:102B34002F4B1B6803F40033002B02D001233B60AE
:102B440001E000233B603B68012B4BD1294A294B10
:102B54001B6843F010031360264A264B1B6823F0BE
:102B640003031360234A234B1B6843F002031360DF
:102B74001F4A1F4B5B6853601D4A1D4B5B685360C3
:102B84001B4A1B4B5B6843F480635360184A184B21
:102B94005B6823F47C135360154A154B5B6843F45C
:102BA400E8135360124A124B1B6843F0807313609E
:102BB40000BF0F4B1B6803F00073002BF9D00C4AC5
:102BC4000B4B5B6823F003035360094A084B5B68B3
:102BD40043F00203536000BF054B5B6803F00C0332
:102BE400082BF9D100BF0C37BD4680BC704700BF2D
:102BF400001002400020024080B485B000AF78602D
:102C04000023FB607B681BBAFB60FB681846143723
:102C1400BD4680BC704700BF80B489B000AF786007
:102C240039600023FB6100233B610023BB61002367
:102C3400FB6000237B610023BB603B68DB7803F00F
:102C44000F03FB613B68DB7803F01003002B05D016
:102C54003B689B781A46FB691343FB613B681B88FE
:102C6400DBB2002B44D07B681B687B610023BB6113
:102C740038E00122BB6902FA03F3FB603B681B885E
:102C84001A46FB6813403B613A69FB689A4226D1B5
:102C9400BB699B00FB600F22FB6802FA03F3BB6075
:102CA400BB68DB437A6913407B61FA69FB6802FA0B
:102CB40003F37A6913437B613B68DB78282B05D1E6
:102CC4000122BB699A407B685A6108E03B68DB7863
:102CD400482B04D10122BB699A407B681A61BB6905
:102CE4000133BB61BB69072BC3D97B687A691A605E
:102CF4003B681B88FF2B46D97B685B687B6100239C
:102D0400BB613AE0BB690833012202FA03F3FB60BA
:102D14003B681B881A46FB6813403B613A69FB68B1
:102D24009A4227D1BB699B00FB600F22FB6802FA21
:102D340003F3BB60BB68DB437A6913407B61FA69C8
:102D4400FB6802FA03F37A6913437B613B68DB781F
:102D5400282B05D1BB69083301229A407B685A614C
:102D64003B68DB78482B05D1BB69083301229A40C4
:102D74007B681A61BB690133BB61BB69072BC1D98D
:102D84007B687A695A6000BF2437BD4680BC7047AF
:102D940080B400AF044B054A5A60034B044A5A609E
:102DA40000BFBD4680BC7047002002402301674538
:102DB400AB89EFCD80B400AF044A044B1B6943F0E8
:102DC4008003136100BFBD4680BC704700200240F1
:102DD40080B584B000AF78600423FB734FF43020D7
:102DE40000F0AAF80346FB73FB7B042B1BD1104AAB
:102DF4000F4B1B6943F0020313610D4A7B68536157
:102E04000B4A0B4B1B6943F0400313614FF4302012
:102E140000F092F80346FB730549054B1A6941F625
:102E2400FD7313400B61FB7B18461037BD4680BD14
:102E34000020024080B584B000AF7860396004237C
:102E4400FB730023BB604FF4005000F075F8034699
:102E5400FB73FB7B042B30D11A4A1A4B1B6943F0DA
:102E6400010313617B683A6892B21A804FF40050F0
:102E740000F062F80346FB73FB7B042B16D17B68DE
:102E84000233BB60BB681A463B681B0C9BB21380C1
:102E94004FF4005000F050F80346FB730949094B06
:102EA4001A6941F6FE7313400B6106E00549054BB0
:102EB4001A6941F6FE7313400B61FB7B1846103709
:102EC400BD4680BD0020024080B483B000AF78606E
:102ED400034A7B68D36000BF0C37BD4680BC704793
:102EE4000020024080B483B000AF0423FB71114B77
:102EF400DB6803F00103002B02D00123FB7113E014
:102F04000C4BDB6803F00403002B02D00223FB719B
:102F14000AE0084BDB6803F01003002B02D0032304
:102F2400FB7101E00423FB71FB7918460C37BD46A5
:102F340080BC70470020024080B584B000AF786048
:102F44000423FB73FFF7CEFF0346FB7306E0FFF792
:102F5400C9FF0346FB737B68013B7B60FB7B012B52
:102F640002D17B68002BF2D17B68002B01D10523B1
:102F7400FB73FB7B18461037BD4680BD80B487B019
:102F840000AF786000237B6100233B610023FB607A
:102F94000023BB604C4B5B6803F00C037B617B69D3
:102FA400042B07D0082B09D0002B33D17B68474A68
:102FB4001A6033E07B68454A1A602FE0424B5B6835
:102FC40003F470133B61404B5B6803F48033FB6094
:102FD4003B699B0C02333B61FB68002B06D13B69C8
:102FE4003B4A02FB03F27B681A6017E0364B5B68CE
:102FF40003F40033002B06D03B69354A02FB03F28D
:103004007B681A600AE03B69304A02FB03F27B6882
:103014001A6003E07B682D4A1A6000BF2A4B5B6884
:1030240003F0F0037B617B691B097B61294A7B699F
:1030340013441B78DBB2BB607B681A68BB68DA4058
:103044007B685A60204B5B6803F4E0637B617B69B7
:103054001B0A7B611F4A7B6913441B78DBB2BB608C
:103064007B685A68BB68DA407B689A60164B5B6879
:1030740003F460537B617B69DB0A7B61154A7B69DE
:1030840013441B78DBB2BB607B685A68BB68DA40C8
:103094007B68DA600C4B5B6803F440437B617B69BB
:1030A4009B0B7B610C4A7B6913441B78DBB2BB60CE
:1030B4007B68DA68BB68B2FBF3F27B681A6100BF15
:1030C4001C37BD4680BC70470010024000127A00D5
:1030D40000093D008C0000209C00002080B483B0D7
:1030E40000AF78600B46FB70FB78002B06D00949D3
:1030F400084B9A697B6813438B6106E00549054BCD
:103104009A697B68DB4313408B6100BF0C37BD4673
:1031140080BC70470010024080B483B000AF786078
:103124000B46FB70FB78002B06D00949084BDA6983
:103134007B681343CB6106E00549054BDA697B687C
:10314400DB431340CB6100BF0C37BD4680BC7047E6
:103154000010024080B483B000AF7860054A7B68F9
:1031640043F0BF6343F40033D36000BF0C37BD4664
:1031740080BC704700ED00E080B487B000AF786099
:1031840000237B6100233B610F23FB607B68DB78BA
:10319400002B3AD0274BDB68DB4303F4E0631B0AC4
:1031A4007B617B69C3F104033B61FA687B6922FAA2
:1031B40003F3FB607B685B781A463B6902FA03F30E
:1031C4007B617B689B781A46FB6813407A691343DA
:1031D4007B617B691B017B61174A7B681B7879697A
:1031E400C9B213440A4683F80023134A7B681B7848
:1031F4005B09DBB218467B681B7803F01F030121CF
:1032040001FA03F342F820300FE00B497B681B7886
:103214005B09DBB218467B681B7803F01F030122AD
:103224009A4000F1200341F8232000BF1C37BD461B
:1032340080BC704700ED00E000E100E080B483B0A2
:1032440000AF0346FB80044AFB88136000BF0C37C1
:10325400BD4680BC704700BF0030004080B483B0DE
:1032640000AF0346FB71044AFB79536000BF0C377F
:10327400BD4680BC704700BF0030004080B483B0BE
:1032840000AF0346FB80044AFB88936000BF0C3701
:10329400BD4680BC704700BF0030004080B400AF22
:1032A400034B4AF6AA221A6000BFBD4680BC704791
:1032B4000030004080B400AF034B4CF6CC421A609F
:1032C40000BFBD4680BC70470030004080B58CB064
:1032D40000AF786039600023FB620023BB620023E7
:1032E4007B6200233B620023FB617B68FB617B689C
:1032F4001B8A9BB2FB62FA6A4CF6FF731340FB62B3
:103304003B68DB881A46FB6A1343FB62FB6A9AB28A
:103314007B681A827B689B899BB2FB62FA6A4EF6D1
:10332400F3131340FB623B689A883B681B89134381
:103334009AB23B685B8913439BB21A46FB6A1343F8
:10334400FB62FB6A9AB27B689A817B689B8A9BB218
:10335400FB62FA6A4FF6FF431340FB623B689B89AA
:103364001A46FB6A1343FB62FB6A9AB27B689A8231
:1033740007F108031846FFF701FEFB692E4A934242
:1033840002D17B69BB6201E03B69BB627B689B89BC
:103394009BB21BB2002B0CDABA6A13469B0013448F
:1033A4009A001A443B681B685B00B2FBF3F37B6230
:1033B4000BE0BA6A13469B0013449A001A443B6814
:1033C4001B689B00B2FBF3F37B627B6A1B4AA2FB84
:1033D40003235B091B01FB62FB6A1B09642202FBDA
:1033E40003F37A6AD31A3B627B689B899BB21BB254
:1033F400002B0CDA3B6ADB003233104AA2FB0323B6
:103404005B0903F00703FA6A1343FB620BE03B6AB0
:103414001B013233094AA2FB03235B0903F00F03A8
:10342400FA6A1343FB62FB6A9AB27B681A8100BF93
:103434003037BD4680BD00BF003801401F85EB51C9
:1034440080B483B000AF78600B46FB70FB78002B30
:1034540008D07B689B899BB243F400539AB27B6883
:103464009A8107E07B689B899BB223F400539AB24C
:103474007B689A8100BF0C37BD4680BC704700BF93
:1034840080B487B000AF78600B467B8013467B70B6
:1034940000233B610023FB600023BB6000237B61AE
:1034A4007B687B617B88DBB25B09DBB23B617B8839
:1034B40003F01F03FB600122FB6802FA03F3BB6005
:1034C4003B69012B03D17B690C337B6109E03B69C8
:1034D400022B03D17B6910337B6102E07B691433D7
:1034E4007B617B78002B06D07B697A691168BA68A6
:1034F4000A431A6006E07B697A691168BA68D243A4
:103504000A401A6000BF1C37BD4680BC704700BF2C
:1035140080B483B000AF78600B467B807B88C3F3B4
:1035240008039AB27B689A8000BF0C37BD4680BC02
:10353400704700BF80B483B000AF78607B689B881D
:103544009BB2C3F308039BB218460C37BD4680BC3C
:10355400704700BF80B485B000AF78600B467B80B5
:103564000023FB737B681B889AB27B8813409BB251
:10357400002B02D00123FB7301E00023FB73FB7BD0
:1035840018461437BD4680BC704700BF80B485B070
:1035940000AF786039600023FB817B681B88FB8166
:1035A4007B682E4A934213D07B682D4A93420FD0F6
:1035B4007B68B3F1804F0BD07B682A4A934207D0D3
:1035C4007B68294A934203D07B68284A934208D1F6
:1035D400FB8923F07003FB813B685A88FB89134302
:1035E400FB817B68224A93420CD07B68214A934238
:1035F40008D0FB8923F44073FB813B68DA88FB899C
:103604001343FB817B68FA891A803B689A887B683C
:103614009A853B681A887B681A857B680F4A9342AF
:103624000FD07B680E4A93420BD07B68124A9342B8
:1036340007D07B68114A934203D07B68104A9342B7
:1036440004D13B681B7A9AB27B681A867B68012294
:103654009A8200BF1437BD4680BC7047002C0140DD
:10366400003401400004004000080040000C004009
:10367400001000400014004000400140004401409C
:103684000048014080B483B000AF78600B46FB7003
:10369400FB78002B08D07B681B889BB243F00103A6
:1036A4009AB27B681A8007E07B681B889BB223F080
:1036B40001039AB27B681A8000BF0C37BD4680BCF8
:1036C400704700BF80B483B000AF78600B467B8046
:1036D40013467B707B78002B08D07B689B899AB259
:1036E4007B8813439AB27B689A8109E07B689B8943
:1036F4009AB27B88DB439BB213409AB27B689A816F
:1037040000BF0C37BD4680BC704700BF80B483B097
:1037140000AF78600B467B807B88DB439AB27B6882
:103724001A8200BF0C37BD4680BC704780B485B098
:1037340000AF78600B467B800023FB730023BB81C2
:1037440000237B817B681B8A9AB27B881340BB81F0
:103754007B689B899AB27B8813407B81BB89002B51
:1037640005D07B89002B02D00123FB7301E00023E9
:10377400FB73FB7B18461437BD4680BC704700BF03
:1037840080B483B000AF78600B467B807B88DB43DA
:103794009AB27B681A8200BF0C37BD4680BC704762
:1037A400002103E00A4B5B584350043109480A4B9B
:1037B40042189A42F6D3094A02E0002342F8043B35
:1037C400074B9A42F9D3FFF75DF9FEF79DFF704767
:1037D4008841000800000020A0000020A000002074
:1037E400280D0020FEE70000286E756C6C2900008F
:1037F40000002110422063308440A550C660E77069
:10380400088129914AA16BB18CC1ADD1CEE1EFF110
:103814003112100273325222B5529442F772D662B8
:10382400399318837BB35AA3BDD39CC3FFF3DEE360
:103834006224433420040114E664C774A444855408
:103844006AA54BB528850995EEE5CFF5ACC58DD5B0
:103854005336722611163006D776F6669556B44658
:103864005BB77AA719973887DFF7FEE79DD7BCC700
:10387400C448E5588668A7784008611802282338A8
:10388400CCC9EDD98EE9AFF9488969990AA92BB950
:10389400F55AD44AB77A966A711A500A333A122AF8
:1038A400FDDBDCCBBFFB9EEB799B588B3BBB1AABA0
:1038B400A66C877CE44CC55C222C033C600C411C48
:1038C400AEED8FFDECCDCDDD2AAD0BBD688D499DF0
:1038D400977EB66ED55EF44E133E322E511E700E98
:1038E4009FFFBEEFDDDFFCCF1BBF3AAF599F788F40
:1038F4008891A981CAB1EBA10CD12DC14EF16FE120
:103904008010A100C230E320045025404670676057
:10391400B9839893FBA3DAB33DC31CD37FE35EF36F
:10392400B1029012F322D2323542145277625672A7
:10393400EAB5CBA5A89589856EF54FE52CD50DC5BF
:10394400E234C324A01481046674476424540544F7
:10395400DBA7FAB79987B8975FE77EF71DC73CD70F
:10396400D326F2369106B016576676761546345647
:103974004CD96DC90EF92FE9C899E9898AB9ABA95F
:103984004458654806782768C018E1088238A32897
:103994007DCB5CDB3FEB1EFBF98BD89BBBAB9ABBAF
:1039A400754A545A376A167AF10AD01AB32A923AE7
:1039B4002EFD0FED6CDD4DCDAABD8BADE89DC98DFF
:1039C400267C076C645C454CA23C832CE01CC10C37
:1039D4001FEF3EFF5DCF7CDF9BAFBABFD98FF89F4F
:1039E400176E367E554E745E932EB23ED10EF01E87
:1039F40025732D25642025782025782025780A0034
:103A0400696C6C6567616C206164647220696E74B2
:103A1400657276616C205B25782C2025785D2C20DE
:103A24006D7573742062656C6F6E6720746F205BB4
:103A340025782C2025785D0A0000000070726F67DD
:103A440072616D206661696C205B25785D3A25782A
:103A54002028737461747573202578290A00000086
:103A6400636865636B206661696C205B25785D3AE9
:103A740025782028657870656374202578290A00E4
:103A840073697A65206D75737420616C69676E2043
:103A9400627920776F726420282578290A00000053
:103AA400696C6C6567616C20696E74657276616CB3
:103AB400205B25782C2025785D2C206D757374206F
:103AC40062656C6F6E6720746F205B25782C2025EF
:103AD400785D0A00666C6173685F7772697465006B
:103AE40025732D2564202578200A00006D616769FF
:103AF4006320636D64205B25735D210A0000000070
:103B0400636D6420746F6F206C6F6E67210A000010
:103B14006275662066756C6C210A000075617274AA
:103B24002070726F647563652025780A00000000B8
:103B34007561727420636F6E73756D652025780AE4
:103B44000000000025732D25642025780A0000005C
:103B54005553415254325F49525148616E646C6509
:103B6400720000005553415254315F49525148612B
:103B74006E646C657200000044454255475F5553BE
:103B8400415254325F49525148616E646C6572000F
:103B9400720000007220202020205B616464725D4A
:103BA400202020202020202020202020202072657A
:103BB400616420202020616E7920616464720000B9
:103BC400770000007720202020205B616464725D10
:103BD400205B646174615D202020202020207772A6
:103BE400697465202020616E79206164647200002C
:103BF400780000007820202020205B616464725DDE
:103C04002020202020202020202020202020657813
:103C1400656375746520616E792061646472000067
:103C240064756D700000000064756D7020205B6128
:103C34006464725D205B776F72645F6E756D5D2086
:103C4400202064756D7020202020616E79206164CD
:103C5400647200006C6F6164790000006C6F6164D1
:103C640079205B616464725D202020202020202064
:103C74002020202020206C6F616420646174612006
:103C8400746F20616E79206164647220776974684E
:103C940020796D6F64656D0068656C7000000000CC
:103CA40068656C70202020202020202020202020E7
:103CB400202020202020202020207072696E742073
:103CC400636D6420696E666F000000005B307825C8
:103CD400785D3A20307825780A000000283078256D
:103CE4007829202D3E5B307825785D0A000000009D
:103CF4006578656375746520307825782028307878
:103D0400257820307825782030782578203078255B
:103D140078292072657475726E20307825780A00CF
:103D24005B307825585D3A20000000003078255833
:103D3400200000000D0A5B307825585D3A20000011
:103D44000A00000025730A00232320546F74616C59
:103D54002053697A652020202020203D20307825BA
:103D640058203D2025642042797465730A000000C0
:103D740061737365727420283029206661696C65EB
:103D840064210A006472697665722F7368656C6CCD
:103D94002F7368656C6C2E630000000025733A096C
:103DA400090925730A000000696C6C6567616C2061
:103DB400636D64205B25735D200A00007265747571
:103DC400726E20307825780A000000000A75746C41
:103DD4006F616465723E0000636D645F7265736554
:103DE400740000002000000043524300436B7375CD
:103DF4006D00000078797A4D6F64656D202D202563
:103E040073206D6F64652C20256428534F48292F37
:103E1400256428535458292F25642843414E2920CA
:103E24007061636B6574732C2025642072657472F1
:103E34006965730A0000000043616E2774206163A2
:103E4400636573732066696C65000000536F72725A
:103E5400792C207A4D6F64656D206E6F74206176C5
:103E640061696C61626C65207965740054696D6583
:103E740064206F7574000000456E64206F662066D0
:103E8400696C650043616E63656C6C656400000079
:103E9400496E76616C6964206672616D696E670053
:103EA4004352432F636865636B73756D206572724B
:103EB4006F720000426C6F636B2073657175656E81
:103EC4006365206572726F7200000000556E6B6E40
:103ED4006F776E206572726F720000005B25735DF0
:103EE4005B25735D5B25645D3A2025730A00000041
:103EF4006368697069643A202558255825580A0072
:103F040075617274322072656164790A0000000080
:103F14000A25730A000000006672656520666C61FC
:103F24007368206D656D6F7279205B307825582C2D
:103F340020307825585D0A006672656520737261C9
:103F44006D20206D656D6F7279205B307825582C5B
:103F540020307825585D0A0025732D2564200A0039
:103F640025733A0A00000000585053523A20307822
:103F74002558200A0000000050433A2020203078C1
:103F84002558200A000000004C523A2020203078A6
:103F94002558200A000000005231323A202030789F
:103FA4002558200A0000000052333A20202030789F
:103FB4002558200A0000000052323A202020307890
:103FC4002558200A0000000052313A202020307881
:103FD4002558200A0000000052303A202020307872
:103FE4002558200A000000005231343A202030784D
:103FF4002558200A000000005231313A2020307840
:104004002558200A000000005231303A2020307830
:104014002558200A0000000052393A202020307828
:104024002558200A0000000052383A202020307819
:104034002558200A0000000052373A20202030780A
:104044002558200A0000000052363A2020203078FB
:104054002558200A0000000052353A2020203078EC
:104064002558200A0000000052343A2020203078DD
:104074002558200A0A000000484653523A20307856
:104084002558200A00000000434653523A20307855
:104094002558200A000000004D4653523A2030783B
:1040A4002558200A00000000424653523A20307836
:1040B4002558200A00000000554653523A20307813
:1040C4002558200A000000004D4D41523A20307816
:1040D4002558200A00000000424641523A20307818
:1040E4002558200A000000004E4D495F48616E6467
:1040F4006C657200486172644661756C745F4861F6
:104104006E646C65720000004D656D4D616E616793
:10411400655F48616E646C657200000042757346A9
:1041240061756C745F48616E646C657200000000B8
:1041340055736167654661756C745F48616E646C44
:10414400657200005356435F48616E646C6572008B
:1041540044656275674D6F6E5F48616E646C65722D
:104164000000000050656E6453565F48616E646CD5
:10417400657200005379735469636B5F48616E64C0
:044184006C657200F4
:1041880003000000943B0008F9150008983B00085C
:10419800C43B000831160008C83B0008F43B00087F
:1041A80075160008F83B0008243C0008FD160008B6
:1041B8002C3C0008583C0008B9170008603C00086F
:1041C8009C3C000805190008A43C000875746C6F35
:1041D800616465722073797374656D206275696CAA
:1041E8006474696D65205B31333A31323A35392070
:1041F8004A756E20313820323031375D207265764D
:1042080020373538653734380000000000000000DA
:104218000102030401020304060708090204060850
:04000005080001E40A
:00000001FF
