:020000040800F2
:100000000000086061A10008919E00089D9E000804
:10001000A59E0008AD9E0008B59E000800000000E7
:10002000000000000000000000000000BD9E00086D
:10003000C99E000800000000D59E0008E19E00084F
:10004000ADA10008ADA10008ADA10008ADA1000858
:10005000ADA10008ADA10008ADA10008ADA1000848
:10006000ADA10008ADA10008ADA10008ADA1000838
:10007000ADA10008ADA10008ADA10008ADA1000828
:10008000ADA10008ADA10008ADA10008ADA1000818
:10009000ADA10008ADA10008ADA10008ADA1000808
:1000A000ADA10008ADA10008ADA10008ADA10008F8
:1000B000ADA10008ADA10008ADA10008ADA10008E8
:1000C000ADA10008ADA10008ADA10008ADA10008D8
:1000D000ADA10008899D0008ADA10008ADA10008F0
:1000E000ADA10008ADA10008ADA10008ADA10008B8
:1000F000ADA10008ADA10008ADA10008ADA10008A8
:10010000ADA10008ADA10008ADA10008ADA1000897
:10011000ADA10008ADA10008ADA10008ADA1000887
:10012000ADA10008ADA10008ADA10008ADA1000877
:1001300000000000000000000000000000000000BF
:1001400000000000000000000000000000000000AF
:10015000000000000000000000000000000000009F
:10016000000000000000000000000000000000008F
:10017000000000000000000000000000000000007F
:10018000000000000000000000000000000000006F
:10019000000000000000000000000000000000005F
:1001A000000000000000000000000000000000004F
:1001B000000000000000000000000000000000003F
:1001C000000000000000000000000000000000002F
:1001D000000000000000000000000000000000001F
:0401E0005FF8E0F1F3
:1001E4004FF00004EFF30984204670472346184675
:1001F400034683F3098870474FF00004EFF3088443
:100204002046704723461846034683F30888704700
:1002140090B482B000AF4FF000037B60EFF3128420
:100224007C607B68184607F10807BD4690BC7047A0
:1002340080B483B000AF78607B6883F3118807F1E2
:100244000C07BD4680BC704790B482B000AF4FF03D
:1002540000037B60EFF310847C607B68184607F131
:100264000807BD4690BC704780B483B000AF786087
:100274007B6883F3108807F10C07BD4680BC704788
:1002840090B482B000AF4FF000037B60EFF31384AF
:100294007C607B68184607F10807BD4690BC704730
:1002A40080B483B000AF78607B6883F3138807F170
:1002B4000C07BD4680BC704790B482B000AF4FF0CD
:1002C40000037B60EFF314847C607B68184607F1BD
:1002D4000807BD4690BC704780B483B000AF786017
:1002E4007B6883F3148807F10C07BD4680BC704714
:1002F40090B484B000AF78604FF00003FB607B687B
:100304001CBAFC60FB68184607F11007BD4690BC98
:10031400704700BF90B484B000AF0346FB804FF039
:100324000003FB60FB885CBAFC60FB68184607F1BD
:100334001007BD4690BC704790B484B000AF03462C
:10034400FB804FF00003FB60FB88DCBAFC60FB68B9
:10035400184607F11007BD4690BC704790B484B0AE
:1003640000AF78604FF00003FB607B6893FAA3F45E
:10037400FC60FB68184607F11007BD4690BC704747
:1003840090B484B000AF78604FF00003FB737B68D7
:10039400D3E84F4FFC73FB7B184607F11007BD46AB
:1003A40090BC704790B484B000AF78604FF0000305
:1003B400FB817B68D3E85F4FFC81FB89184607F11A
:1003C4001007BD4690BC704790B484B000AF78600D
:1003D4004FF00003FB607B6853E8004FFC60FB6850
:1003E400184607F11007BD4690BC704790B484B01E
:1003F40000AF03463960FB714FF00003FB603B68BC
:10040400FA79C3E8442FFC60FB68184607F110072B
:10041400BD4690BC704700BF90B484B000AF0346A3
:100424003960FB804FF00003FB603B68FA88C3E847
:10043400542FFC60FB68184607F11007BD4690BCBA
:10044400704700BF90B484B000AF786039604FF05B
:100454000003FB603B687A6843E80024FC60FB68A7
:10046400184607F11007BD4690BC704780B582B0AE
:1004740000AF4FF048004FF0010105F05FFD4FF071
:100484002003BB804FF01003FB714FF00303BB71DB
:1004940007F104030D48194604F06AF90B484FF0BC
:1004A400200104F0ABFA4FF02003BB8007F10403F2
:1004B4000748194604F05CF905484FF0200104F0A0
:1004C4009DFA07F10807BD4680BD00BF000C01403E
:1004D4000018014080B483B000AF7860054A7B689F
:1004E40043F0BF6343F40033D36007F10C07BD4608
:1004F40080BC704700ED00E080B487B000AF786046
:100504004FF000037B614FF000033B614FF00F039A
:10051400FB607B68DB78002B3DD02A4BDB686FEAFD
:10052400030303F4E0634FEA13237B617B69C3F1A4
:1005340004033B617B69FA6822FA03F3FB607B687E
:100544005B781A463B6902FA03F37B617B689B780C
:100554001A46FB6813407A6913437B617B694FEA4F
:1005640003137B6118497B681B787A69D2B2CB1874
:1005740083F80023144B7A6812784FEA5212D2B2ED
:100584007968097801F01F014FF0010000FA01F1C8
:1005940043F8221011E00C4B7A6812784FEA521299
:1005A400D2B27968097801F01F014FF0010000FA16
:1005B40001F102F1200243F8221007F11C07BD46A5
:1005C40080BC704700ED00E000E100E080B483B03F
:1005D40000AF78603960074A3B6823F0604323F03A
:1005E4007F0379680B43936007F10C07BD4680BC19
:1005F400704700BF00ED00E080B483B000AF024656
:100604000B46FA71BB71BB79002B06D0094B094A22
:100614001169FA790A431A6107E0064B054A116920
:10062400FA796FEA02020A401A6107F10C07BD4623
:1006340080BC704700ED00E080B483B000AF786008
:100644007B68042B06D1094B084A126842F0040265
:100654001A6005E0054B054A126822F004021A608C
:1006640007F10C07BD4680BC704700BF10E000E0F6
:1006740080B582B000AF78607A681A4B9A420CD188
:100684004FF400704FF0010105F098FC4FF4007036
:100694004FF0000105F092FC20E07A68124B9A4278
:1006A4000CD14FF480604FF0010105F087FC4FF44A
:1006B40080604FF0000105F081FC0FE07A680B4B7D
:1006C4009A420BD14FF400404FF0010105F076FC43
:1006D4004FF400404FF0000105F070FC07F10807EB
:1006E400BD4680BD0024014000280140003C01407B
:1006F40080B485B000AF786039604FF00003FB60D0
:100704004FF00003FB727B685B68FB60FB6823F4BB
:10071400702323F48073FB603B681A683B681B7981
:100724004FEA03231343FA681343FB607B68FA68B8
:100734005A607B689B68FB60FA68184B1340FB6047
:100744003B68DA683B689B681A433B685B794FEA0D
:1007540043031343FA681343FB607B68FA689A60A7
:100764007B68DB6AFB60FB6823F47003FB603B6817
:100774001B7C03F1FF33DAB2FB7A1343FB72FB7A7F
:100784004FEA0353FA681343FB607B68FA68DA6242
:1007940007F11407BD4680BC704700BFFDF7F1FFA9
:1007A40080B483B000AF78607B684FF000021A60B9
:1007B4007B684FF000021A717B684FF000025A7197
:1007C4007B684FF000029A607B684FF00002DA60A9
:1007D4007B684FF001021A7407F10C07BD4680BC18
:1007E400704700BF80B483B000AF78600B46FB70E5
:1007F400FB78002B06D07B689B6843F001027B6882
:100804009A6005E07B689B6823F001027B689A602C
:1008140007F10C07BD4680BC704700BF80B483B0AD
:1008240000AF78600B46FB70FB78002B06D07B682A
:100834009B6843F480727B689A6005E07B689B68E0
:1008440023F480727B689A6007F10C07BD4680BC74
:10085400704700BF80B485B000AF786013460A4685
:100864007A807B704FF00003FB737B88FB737B788B
:10087400002B06D07B685A68FB7B1A437B685A605E
:1008840007E07B685A68FB7B6FEA03031A407B68C6
:100894005A6007F11407BD4680BC704780B483B02A
:1008A40000AF78607B689B6843F008027B689A60BD
:1008B40007F10C07BD4680BC704700BF80B485B00B
:1008C40000AF78604FF00003FB737B689B6803F014
:1008D4000803002B03D04FF00103FB7302E04FF039
:1008E4000003FB73FB7B184607F11407BD4680BC6D
:1008F400704700BF80B483B000AF78607B689B68AA
:1009040043F004027B689A6007F10C07BD4680BC83
:10091400704700BF80B485B000AF78604FF000032B
:10092400FB737B689B6803F00403002B03D04FF038
:100934000103FB7302E04FF00003FB73FB7B1846DB
:1009440007F11407BD4680BC704700BF80B483B074
:1009540000AF78600B46FB70FB78002B06D07B68F9
:100964009B6843F4A0027B689A6005E07B689B68FF
:1009740023F4A0027B689A6007F10C07BD4680BC93
:10098400704700BF80B485B000AF78604FF00003BB
:10099400FB737B689B6803F48003002B03D04FF048
:1009A4000103FB7302E04FF00003FB73FB7B18466B
:1009B40007F11407BD4680BC704700BF80B485B002
:1009C40000AF78600B46FB704FF00003FB604FF004
:1009D4000003BB607B685B68FB60FB6823F46043D7
:1009E400FB60FB7803F1FF33BB60BB684FEA433322
:1009F400FA681343FB607B68FA685A6007F11407CE
:100A0400BD4680BC704700BF80B483B000AF78603F
:100A14000B46FB70FB78002B06D07B685B6843F4C5
:100A240000627B685A6005E07B685B6823F40062BF
:100A34007B685A6007F10C07BD4680BC704700BF55
:100A440080B485B000AF7860F970BA707B704FF0F5
:100A54000003FB604FF00003BB60FB78092B27D930
:100A64007B68DB68FB60FA7813464FEA43039B1804
:100A7400A3F11E034FF0070202FA03F3BB60BB6845
:100A84006FEA0303FA681340FB607978FA78134637
:100A94004FEA43039B18A3F11E0301FA03F3BB605F
:100AA400FA68BB681343FB607B68FA68DA6022E08B
:100AB4007B681B69FB60FA7813464FEA43039B1873
:100AC4004FF0070202FA03F3BB60BB686FEA03034B
:100AD400FA681340FB607978FA7813464FEA4303C7
:100AE4009B1801FA03F3BB60FA68BB681343FB600D
:100AF4007B68FA681A61BB78062B27D87B685B6B26
:100B0400FB60BB7803F1FF3213464FEA83039B1863
:100B14004FF01F0202FA03F3BB60BB686FEA0303E2
:100B2400FA681340FB60F978BB7803F1FF3213468F
:100B34004FEA83039B1801FA03F3BB60FA68BB68AE
:100B44001343FB607B68FA685A6351E0BB780C2B53
:100B540027D87B681B6BFB60BA7813464FEA830384
:100B64009B18A3F123034FF01F0202FA03F3BB60A7
:100B7400BB686FEA0303FA681340FB60F978BA783C
:100B840013464FEA83039B18A3F1230301FA03F3EB
:100B9400BB60FA68BB681343FB607B68FA681A633E
:100BA40026E07B68DB6AFB60BA7813464FEA83036E
:100BB4009B18A3F141034FF01F0202FA03F3BB6039
:100BC400BB686FEA0303FA681340FB60F978BA78EC
:100BD40013464FEA83039B18A3F1410301FA03F37D
:100BE400BB60FA68BB681343FB607B68FA68DA622F
:100BF40007F11407BD4680BC704700BF80B483B0C2
:100C040000AF78600B46FB70FB78002B06D07B6846
:100C14009B6843F480127B689A6005E07B689B685C
:100C240023F480127B689A6007F10C07BD4680BCF0
:100C3400704700BF80B483B000AF78607B68DB6C22
:100C44009BB2184607F10C07BD4680BC704700BF35
:100C540080B400AF024B1B681846BD4680BC704789
:100C64004C24014080B483B000AF78600B46FB7025
:100C7400FB78002B06D07B685B6843F480627B685A
:100C84005A6005E07B685B6823F480627B685A6085
:100C940007F10C07BD4680BC704700BF80B483B029
:100CA40000AF78600B46FB70FB78002B06D07B68A6
:100CB4005B6843F480527B685A6005E07B685B683C
:100CC40023F480527B685A6007F10C07BD4680BC50
:100CD400704700BF80B485B000AF786039604FF0D2
:100CE4000003FB607B689B68FB60FB6823F4E043C4
:100CF400FB60FA683B681343FB607B68FA689A60A0
:100D040007F11407BD4680BC704700BF80B483B0B0
:100D140000AF78600B46FB70FB78002B06D07B6835
:100D24009B6843F400427B689A6005E07B689B689B
:100D340023F400427B689A6007F10C07BD4680BC2F
:100D4400704700BF80B483B000AF78600B46FB707F
:100D5400FB78002B06D07B689B6843F402127B6807
:100D64009A6005E07B689B6823F402127B689A60B2
:100D740007F10C07BD4680BC704700BF80B485B046
:100D840000AF78604FF00003FB737B689B6803F44B
:100D94000013002B03D04FF00103FB7302E04FF06C
:100DA4000003FB73FB7B184607F11407BD4680BCA8
:100DB400704700BF80B487B000AF7860F970BA7034
:100DC4007B704FF000037B614FF000033B614FF0F9
:100DD4000003FB60FB78092B27D97B68DB687B6108
:100DE400FA7813464FEA43039B18A3F11E034FF00E
:100DF400070202FA03F33B613B696FEA03037A6972
:100E040013407B617978FA7813464FEA43039B18C1
:100E1400A3F11E0301FA03F33B617A693B691343AF
:100E24007B617B687A69DA6022E07B681B697B619D
:100E3400FA7813464FEA43039B184FF0070202FA6D
:100E440003F33B613B696FEA03037A6913407B61F7
:100E54007978FA7813464FEA43039B1801FA03F3AF
:100E64003B617A693B6913437B617B687A691A61E8
:100E74007B689B6B7B617B6903F440134FEA1353DC
:100E8400FB60FB68DBB26FEA0303DAB2BB78D3180A
:100E9400DBB203F10303DBB21A4613464FEA8303C2
:100EA4009B184FF01F0202FA03F33B613B696FEAA0
:100EB40003037A6913407B61F978FB68DBB26FEA5C
:100EC4000303DAB2BB78D318DBB203F10303DBB25A
:100ED4001A4613464FEA83039B1801FA03F33B6156
:100EE4007A693B6913437B617B687A699A6307F18A
:100EF4001C07BD4680BC704780B485B000AF7860E5
:100F04000B46FB704FF00003FB604FF00003BB6027
:100F14007B689B6BFB60FB6823F44013FB60FB78EE
:100F240003F1FF33BB60BB684FEA0353FA68134312
:100F3400FB607B68FA689A6307F11407BD4680BCBE
:100F4400704700BF80B485B000AF786013460A468E
:100F5400FA703B804FF00003FB607B68FB60FA781B
:100F6400FB68D318FB60FB683A881A6007F1140722
:100F7400BD4680BC704700BF80B485B000AF7860C8
:100F84000B46FB704FF00003FB607B68FB60FA7854
:100F9400FB68D31803F12803FB60FB681B689BB252
:100FA400184607F11407BD4680BC704780B485B06D
:100FB40000AF786039604FF00003FB607B685B68CA
:100FC400FB60FB6823F4400323F40073FB60FA68BE
:100FD4003B681343FB607B68FA685A6007F11407A7
:100FE400BD4680BC704700BF80B483B000AF78605A
:100FF40013460A467A803B807A887B685A623A882C
:101004007B689A6207F10C07BD4680BC704700BF3D
:1010140080B485B000AF78600B46FB704FF00003DE
:10102400FB607B685B68FB60FB6823F01F03FB606D
:10103400FB78FA681343FB607B68FA685A6007F12F
:101044001407BD4680BC704780B483B000AF03462C
:10105400FB71FB79002B06D0084B084A926842F4D6
:1010640000029A6005E0054B044A926822F40002EB
:101074009A6007F10C07BD4680BC7047002401400C
:1010840080B485B000AF78600B46FB704FF000036E
:10109400FB737B681A68FB781340002B03D04FF076
:1010A4000103FB7302E04FF00003FB73FB7B184664
:1010B40007F11407BD4680BC704700BF80B483B0FD
:1010C40000AF78600B46FB70FB786FEA03027B6825
:1010D4001A6007F10C07BD4680BC704780B487B026
:1010E40000AF78600B467B804FF00003FB754FF038
:1010F40000033B614FF00003FB607B884FEA13233E
:101104009BB23B617B685A687B88DBB21340FB600F
:101114007B681A683B691340002B06D0FB68002BE0
:1011240003D04FF00103FB7502E04FF00003FB75A1
:10113400FB7D184607F11C07BD4680BC704700BF05
:1011440080B485B000AF78600B467B804FF000031D
:10115400FB737B884FEA13239BB2FB73FB7B6FEA21
:1011640003027B681A6007F11407BD4680BC704710
:1011740080B500AF4FF0010004F060FF4FF00000B5
:1011840004F05CFF80BD00BF80B483B000AF0346B1
:10119400FB80044BFA881A6007F10C07BD4680BC3B
:1011A400704700BF04860D4280B483B000AF03468D
:1011B400FB71044BFA791A6007F10C07BD4680BC39
:1011C400704700BF00860D4280B483B000AF034671
:1011D400FB71044BFA791A6007F10C07BD4680BC19
:1011E400704700BF88860D4280B485B000AF0346C7
:1011F400FB804FF00003FB81094B9B8DFB81FB8936
:1012040023F46073FB81FA89FB881343FB81044B4D
:10121400FA899A8507F11407BD4680BC704700BF60
:10122400006C004080B485B000AF0346FB714FF002
:101234000003FB81094B9B8DFB81FB8923F07F031A
:10124400FB81FB799AB2FB891343FB81034BFA8937
:101254009A8507F11407BD4680BC7047006C0040B6
:1012640080B485B000AF02460B46FA80BB804FF0D5
:101274000003FB60064BFB60FA88FB68D318FB6035
:10128400FB68BA881A6007F11407BD4680BC704732
:10129400006C004080B485B000AF0346FB804FF083
:1012A4000003FB60074BFB60FA88FB68D318FB6004
:1012B400FB681B889BB2184607F11407BD4680BC27
:1012C400704700BF006C004080B400AF034B1B6844
:1012D400DBB21846BD4680BC704700BFA0860D42F5
:1012E40080B400AF054B054A928E92B242F00102DF
:1012F40092B29A86BD4680BC704700BF006C004025
:1013040080B400AF034B1B68DBB21846BD4680BCFB
:10131400704700BFA4860D4280B400AF054B054A58
:10132400928E92B242F0020292B29A86BD4680BC7C
:10133400704700BF006C004080B582B000AF786099
:101344007A68104B9A420CD14FF000704FF00101B3
:1013540004F054FE4FF000704FF0000104F04EFE14
:101364000BE04FF080604FF0010104F047FE4FF0B6
:1013740080604FF0000104F041FE07F10807BD460C
:1013840080BD00BF0064004080B485B000AF7860C9
:1013940039604FF00003FB734FF00003BB607B68C0
:1013A4001B6823F002027B681A607B681B6843F0A9
:1013B40001027B681A6003E0BB6803F10103BB60B0
:1013C4007B685B6803F00103002B04D1BA684FF615
:1013D400FF739A42F0D17B685B6803F00103002B32
:1013E40003D14FF00003FB73A5E03B689B79012B0D
:1013F40006D17B681B6843F080027B681A6005E0B5
:101404007B681B6823F080027B681A603B68DB7989
:10141400012B06D17B681B6843F040027B681A608D
:1014240005E07B681B6823F040027B681A603B6818
:101434001B7A012B06D17B681B6843F020027B6872
:101444001A6005E07B681B6823F020027B681A6041
:101454003B685B7A012B06D17B681B6843F0100262
:101464007B681A6005E07B681B6823F010027B68C8
:101474001A603B689B7A012B06D17B681B6843F09A
:1014840008027B681A6005E07B681B6823F0080289
:101494007B681A603B68DB7A012B06D17B681B688A
:1014A40043F004027B681A6005E07B681B6823F044
:1014B40004027B681A603B689B784FEA83723B683E
:1014C400DB784FEA03631A433B681B794FEA034313
:1014D4001A433B685B794FEA03531A433B681B8802
:1014E40003F1FF331A437B68DA617B681B6823F0DE
:1014F40001027B681A604FF00003BB6003E0BB6825
:1015040003F10103BB607B685B6803F00103002BFC
:1015140004D0BA684FF6FF739A42F0D17B685B68D7
:1015240003F00103002B03D04FF00003FB7302E030
:101534004FF00103FB73FB7B184607F11407BD460C
:1015440080BC704780B485B000AF78604FF0000372
:10155400FB607B689B7A4FF0010202FA03F3FB60A5
:10156400584B584AD2F8002242F00102C3F8002234
:10157400544B544AD2F81C12FA686FEA02020A4029
:10158400C3F81C227B681B7B002B27D14D4B4D4A93
:10159400D2F80C12FA686FEA02020A40C3F80C226D
:1015A400484B7A68927A7968C9884FEA0140796829
:1015B4004988014302F1480243F8321041497B68EB
:1015C4009B7A7A6892884FEA02407A6812880243CA
:1015D40003F148034FEAC303CB185A607B681B7BB3
:1015E400012B25D1374B374AD2F80C12FA680A433B
:1015F400C3F80C22334B7A68927A796809884FEAE7
:10160400014079684988014302F1480243F83210E5
:101614002C497B689B7A7A6892884FEA02407A6800
:10162400D288024303F148034FEAC303CB185A603C
:101634007B68DB7A002B0AD1224B224AD2F80412AF
:10164400FA686FEA02020A40C3F8042207E01D4B5D
:101654001C4AD2F80412FA680A43C3F804227B68CD
:101664001B89002B09D1174B164AD2F81412FA68B9
:101674006FEA02020A40C3F814227B681B89012B1B
:1016840007D1104B0F4AD2F81412FA680A43C3F870
:1016940014227B685B7B012B07D10A4B094AD2F8E1
:1016A4001C12FA680A43C3F81C22064B054AD2F8F6
:1016B400002222F00102C3F8002207F11407BD46FC
:1016C40080BC70470064004080B483B000AF786091
:1016D4007B684FF000029A717B684FF00002DA7168
:1016E4007B684FF000021A727B684FF000025A7256
:1016F4007B684FF000029A727B684FF00002DA7246
:101704007B684FF000029A707B684FF00002DA7039
:101714007B684FF003021A717B684FF002025A7122
:101724007B684FF001021A8007F10C07BD4680BCAC
:10173400704700BF80B483B000AF0346FB71144B05
:10174400134AD2F8002242F00102C3F80022104AE0
:101754000F4BD3F8003223F47C5323F00E03C2F86A
:1017640000320B4B0A4AD2F80012FA794FEA0222ED
:101774000A43C3F80022064B054AD2F8002222F09D
:101784000102C3F8002207F10C07BD4680BC704774
:101794000064004080B483B000AF78600B46FB70F7
:1017A400FB78002B06D07B681B6843F480327B688F
:1017B4001A6005E07B681B6823F480327B681A603A
:1017C40007F10C07BD4680BC704700BF80B483B0EE
:1017D40000AF78600B46FB70FB78002B1ED07B6853
:1017E4001B6843F080027B681A607B68D3F88431FD
:1017F40043F480727B68C3F884217B68D3F8943106
:1018040043F480727B68C3F894217B68D3F8A431D5
:1018140043F480727B68C3F8A4211DE07B681B68D5
:1018240023F080027B681A607B68D3F8843123F448
:1018340080727B68C3F884217B68D3F8943123F4E5
:1018440080727B68C3F894217B68D3F8A43123F4B5
:1018540080727B68C3F8A42107F10C07BD4680BCE5
:10186400704700BF80B485B000AF786039604FF036
:101874000003FB737B689B6803F08063002B03D039
:101884004FF00003FB7316E07B689B6803F0006372
:10189400002B03D04FF00103FB730CE07B689B68C3
:1018A40003F08053002B03D04FF00203FB7302E0DC
:1018B4004FF00403FB73FB7B042B00F0BA80FB7B2B
:1018C400FA7B796802F118024FEA02128A18126848
:1018D40002F00102796803F118034FEA0313CB18ED
:1018E4001A603B681B7A002B18D1FB7BFA7B796862
:1018F40002F118024FEA02128A1811683A68126853
:101904004FEA42503A68527A02430A43796803F133
:1019140018034FEA0313CB181A601AE0FB7BFA7B17
:10192400796802F118024FEA02128A1811683A68BB
:1019340052684FEAC2003A68127A10433A68527AFF
:1019440002430A43796803F118034FEA0313CB18DF
:101954001A603B689B7A03F00F03DAB23B689A7211
:10196400FB7BFA7B796802F118024FEA02128A18AB
:10197400526822F00F02796803F118034FEA031347
:10198400CB185A60FB7BFA7B796802F118024FEAA4
:1019940002128A1851683A68927A0A43796803F104
:1019A40018034FEA0313CB185A60FB7B3A68927B07
:1019B4004FEA02613A68527B4FEA024211433A68A5
:1019C400127B4FEA022211433A68D27A0A437968B9
:1019D4004FEA0313CB1803F5C4731A60FB7B3A6810
:1019E400927C4FEA02613A68527C4FEA0242114308
:1019F4003A68127C4FEA022211433A68D27B0A43C6
:101A040079684FEA0313CB1803F5C4735A60FB7B60
:101A1400FA7B796802F118024FEA02128A181268F6
:101A240042F00102796803F118034FEA0313CB185B
:101A34001A60FB7B184607F11407BD4680BC70474B
:101A440080B485B000AF78600B46FB704FF00003A4
:101A5400FB60FB78012B09D0022B0DD0002B11D198
:101A64007B689A682A4B1340FB600FE07B689A6896
:101A7400284B1340FB6009E07B689A68264B1340AF
:101A8400FB6003E04FF00003FB6000BFFB68234AE8
:101A940093421DD0214A934208D8214A934213D03D
:101AA4001B4A93421CD0002B0AD025E01D4A9342C6
:101AB40012D0194A93421BD0164A934214D01BE009
:101AC4004FF00203FB601BE04FF00003FB6017E0E4
:101AD4004FF00003FB6013E04FF00003FB600FE0E6
:101AE4004FF00103FB600BE04FF00103FB6007E0E4
:101AF4004FF00103FB6003E04FF00003FB6000BF05
:101B0400FB68DBB2184607F11407BD4680BC70477A
:101B14000300000400030008000003100001000893
:101B2400010000040000011080B483B000AF7860AD
:101B34000B46FB70FB78012B0AD0022B0FD0002B35
:101B440014D17B689B6843F080027B689A600EE046
:101B54007B689B6843F400427B689A6007E07B687B
:101B64009B6843F400027B689A6000E000BF07F1C1
:101B74000C07BD4680BC704780B485B000AFF860E8
:101B84000B467A60FB72FB7AFA6803F11B034FEA97
:101B94000313D3181B68DBB203F00403DAB27B68C7
:101BA4001A727B681B7A002B0CD1FB7AFA6803F15A
:101BB4001B034FEA0313D3181B684FEA53527B6885
:101BC4001A600BE0FB7AFA6803F11B034FEA031374
:101BD400D3181B684FEAD3027B685A60FB7AFA6811
:101BE40003F11B034FEA0313D3181B68DBB203F0A2
:101BF4000203DAB27B685A72FB7AFA6803F11B03B8
:101C04004FEA0313D3185B68DBB203F00F03DAB2B5
:101C14007B689A72FB7AFA6803F11B034FEA031399
:101C2400D3185B684FEA1323DAB27B68DA74FB7A61
:101C3400FA684FEA0313D31803F5DC731B68DAB2AE
:101C44007B68DA72FB7AFA684FEA0313D31803F558
:101C5400DC731B684FEA1323DAB27B681A73FB7ACE
:101C6400FA684FEA0313D31803F5DC731B684FEAD1
:101C74001343DAB27B685A73FB7AFA684FEA0313A8
:101C8400D31803F5DC731B684FEA1363DAB27B687D
:101C94009A73FB7AFA684FEA0313D31803F5DC73DB
:101CA4005B68DAB27B68DA73FB7AFA684FEA03138B
:101CB400D31803F5DC735B684FEA1323DAB27B684D
:101CC4001A74FB7AFA684FEA0313D31803F5DC732A
:101CD4005B684FEA1343DAB27B685A74FB7AFA689A
:101CE4004FEA0313D31803F5DC735B684FEA1363FD
:101CF400DAB27B689A74FB7A002B06D1FB68DB6846
:101D040043F02002FB68DA6005E0FB681B6943F0DE
:101D14002002FB681A6107F11407BD4680BC7047B6
:101D240080B483B000AF78600B46FB70FB78002B67
:101D340006D17B68DB6843F020027B68DA6005E04B
:101D44007B681B6943F020027B681A6107F10C076A
:101D5400BD4680BC704700BF80B485B000AF7860DA
:101D64000B46FB704FF00003FB73FB78002B06D18E
:101D74007B68DB68DBB203F00303FB730CE0FB78E6
:101D8400012B06D17B681B69DBB203F00303FB73F1
:101D940002E04FF00003FB73FB7B184607F11407C6
:101DA400BD4680BC704700BF80B485B000AF78608A
:101DB4000B46FB704FF00003FB734FF6FF73BB60E1
:101DC400FB78002B23D17B681B6823F0030343F0CB
:101DD40001027B681A6003E0BB6803F1FF33BB6058
:101DE4007B685B6803F00303012B02D0BB68002B04
:101DF400F2D17B685B6803F00303012B03D04FF03F
:101E04000003FB7352E04FF00103FB734EE0FB78D9
:101E1400012B21D17B681B6823F003027B681A60C5
:101E240003E0BB6803F1FF33BB607B685B6803F0CE
:101E34000303002B02D0BB68002BF2D17B685B68E4
:101E440003F00303002B03D04FF00003FB732DE0DA
:101E54004FF00103FB7329E0FB78022B23D17B684D
:101E64001B6823F0030343F002027B681A6003E05B
:101E7400BB6803F1FF33BB607B685B6803F003035B
:101E8400022B02D0BB68002BF2D17B685B6803F0A5
:101E94000303022B03D04FF00003FB7306E04FF063
:101EA4000103FB7302E04FF00003FB73FB7B184656
:101EB40007F11407BD4680BC704700BF80B485B0ED
:101EC40000AF78604FF00003FB737B681B6823F05E
:101ED400030343F002027B681A607B685B6803F0CB
:101EE4000303022B02D14FF00103FB73FB7B184663
:101EF40007F11407BD4680BC704700BF80B485B0AD
:101F040000AF78604FF6FF73FB604FF00003FB7285
:101F14007B681B6823F002027B681A6003E0FB689D
:101F240003F1FF33FB607B685B6803F00203002B63
:101F340002D0FB68002BF2D17B685B6803F00203DC
:101F4400002B02D14FF00103FB72FB7A184607F114
:101F54001407BD4680BC704780B485B000AF78607C
:101F64004FF00003FB737B689B69DBB203F07003E3
:101F7400FB73FB7B184607F11407BD4680BC704712
:101F840080B485B000AF78604FF00003FB737B68CA
:101F94009B694FEA1363FB73FB7B184607F1140735
:101FA400BD4680BC704700BF80B485B000AF786088
:101FB4004FF00003FB737B689B6903F47F034FEAD4
:101FC4001343FB73FB7B184607F11407BD4680BC23
:101FD400704700BF80B485B000AFF860B9601346A5
:101FE400FB71FB79002B06D0FB685A69BB681A4366
:101FF400FB685A6107E0FB685A69BB686FEA030330
:102004001A40FB685A6107F11407BD4680BC70474B
:1020140080B485B000AF786039604FF00003FB7383
:102024003B6803F47003002B11D07B689A693B680A
:10203400134023F07F4323F47003002B03D04FF0AD
:102044000103FB7359E04FF00003FB7355E03B6859
:1020540003F08073002B11D07B685A683B681340EF
:1020640023F07F4323F47003002B03D04FF00103CC
:10207400FB7342E04FF00003FB733EE03B6803F068
:102084000063002B11D07B689A683B68134023F0EF
:102094007F4323F47003002B03D04FF00103FB7341
:1020A4002BE04FF00003FB7327E03B6803F0007361
:1020B400002B11D07B68DA683B68134023F07F4320
:1020C40023F47003002B03D04FF00103FB7314E0DF
:1020D4004FF00003FB7310E07B681A693B68134000
:1020E40023F07F4323F47003002B03D04FF001034C
:1020F400FB7302E04FF00003FB73FB7B184607F110
:102104001407BD4680BC704780B485B000AF7860CA
:1021140039604FF00003FB603A68184B9A4204D1CF
:102124007B684FF000029A6123E03B6823F07F4311
:1021340023F47003FB603B6803F00073002B03D0AF
:102144007B68FA68DA6014E03B6803F08063002B74
:1021540003D07B68FA681A610BE03B6803F0006304
:10216400002B03D07B68FA689A6002E07B68FA6807
:102174005A6007F11407BD4680BC70477000F03008
:1021840080B584B000AF786039604FF00003FB7312
:102194007B685A693B681340002B00F0C1803B68A0
:1021A400402B68D0402B0FD8042B3CD0042B04D8F0
:1021B400012B25D0022B2CD0AEE0102B47D0202BA6
:1021C4004FD0082B39D0A7E0B3F5006F00F08F8013
:1021D400B3F5006F09D8B3F5007F74D0B3F5806F01
:1021E4007BD0B3F5807F64D096E0B3F5803F4CD0CC
:1021F400B3F5003F53D0B3F5004F00F082808BE07D
:102204007B689B6818464B4900F012F90346FB7340
:1022140089E07B68DB6818464FF0030100F008F999
:102224000346FB737FE07B68DB6818464FF00801C8
:1022340000F0FEF80346FB7375E07B68DB68184624
:102244004FF0100100F0F4F80346FB736BE07B6879
:102254001B6918464FF0030100F0EAF80346FB73CC
:1022640061E07B681B6918464FF0080100F0E0F854
:102274000346FB7357E07B681B6918464FF0100157
:1022840000F0D6F80346FB734DE07B685B681846A4
:102294004FF0080100F0CCF80346FB7343E07B6881
:1022A4005B6818464FF0100100F0C2F80346FB7358
:1022B40039E07B689B6918464FF0010100F0B8F8DB
:1022C4000346FB732FE07B689B6918464FF00201BD
:1022D40000F0AEF80346FB7325E07B689B69184663
:1022E4004FF0040100F0A4F80346FB731BE07B6885
:1022F4009B6918464FF0700100F09AF80346FB738F
:1023040011E07B685B6818464FF0040100F090F818
:102314000346FB7300BF06E04FF00003FB7302E0CB
:102324004FF00003FB73FB7B184607F11007BD4613
:1023340080BD00BF0101010080B483B000AF7860AC
:1023440039603B68B3F5807F49D0B3F5807F0DD801
:10235400082B2BD0082B04D8012B1ED0042B20D003
:102364005EE0202B27D0402B2AD059E0B3F5006F34
:1023740044D0B3F5006F06D8B3F5007F34D0B3F57D
:10238400806F36D04CE0B3F5803F1ED0B3F5003FEC
:1023940020D0B3F5004F3AD042E07B68234A9A60DC
:1023A4003FE07B684FF00802DA603AE07B684FF068
:1023B4001002DA6035E07B684FF008021A6130E001
:1023C4007B684FF010021A612BE07B684FF0080223
:1023D4005A6026E07B684FF010025A6021E07B6867
:1023E4004FF004025A601CE07B684FF004025A600C
:1023F40017E07B684FF004025A6012E07B684FF0EC
:1024040000029A617B684FF004025A6009E07B681D
:102414004FF000029A617B684FF004025A6000E0BA
:1024240000BF07F10C07BD4680BC704701010100E5
:1024340080B485B000AF786039604FF00003FB735F
:102444007A683B681340002B03D04FF00103FB7301
:1024540002E04FF00003FB73FB7B184607F11407FF
:10246400BD4680BC704700BF80B500AF4FF08040D0
:102474004FF0010103F0C2FD4FF080404FF0000126
:1024840003F0BCFD80BD00BF80B485B000AF7860B0
:102494004FF00003FB810C4B1B68FB81FB8903F0AD
:1024A400F303FB817B681A887B685B8813439AB2C9
:1024B400FB891343FB81044BFA891A6007F1140763
:1024C400BD4680BC704700BF0078004080B483B034
:1024D40000AF0346FB71094BFA791A60FB79002BB4
:1024E40006D100BF064B1B6803F00103002BF9D192
:1024F40007F10C07BD4680BC704700BF00000F42C7
:102504000078004080B483B000AF0346FB71044BF5
:10251400FA791A6007F10C07BD4680BC704700BF0A
:1025240004000F4280B483B000AF0346FB71044B38
:10253400FA795A6007F10C07BD4680BC704700BFAA
:102544000078004080B483B000AF0346FB80044BA6
:10255400FA889A6007F10C07BD4680BC704700BF3B
:102564000078004080B483B000AF0346FB71044B95
:10257400FA795A6107F10C07BD4680BC704700BF69
:102584000078004080B400AF034B9B69DBB218466F
:10259400BD4680BC704700BF0078004080B400AFE7
:1025A400034B4FF001021A60BD4680BC704700BF68
:1025B40000020F4280B483B000AF0346FB71044BAA
:1025C400FA791A6007F10C07BD4680BC704700BF5A
:1025D40004020F4280B487B000AF78604FF000036C
:1025E400FB754FF00003FB604FF000033B61174B9A
:1025F4003B617B684FEA1373FB607B6823F07F4386
:102604007B60FB68002B08D07B684FEA13437B6038
:102614003B6903F10C033B6103E03B6903F11003E5
:102624003B613B691A687B681340002B03D04FF071
:102634000103FB7502E04FF00003FB75FB7D1846B8
:1026440007F11C07BD4680BC704700BF00780040FE
:1026540080B485B000AF78604FF00003FB600B4B93
:102664001B6903F00203FB60084B084A11697A688E
:102674006FEA020222F00300FA6802430A401A6178
:1026840007F11407BD4680BC704700BF00780040C6
:1026940080B485B000AF0346FB714FF00003FB73B9
:1026A4004FF00003BB600E4B1B6803F00203BB60DA
:1026B4000B4B1A69FB791340002B06D0BB68002B27
:1026C40003D04FF00103FB7302E04FF00003FB73F0
:1026D400FB7B184607F11407BD4680BC704700BF5A
:1026E4000078004080B485B000AF0346FB804FF013
:1026F4000003FB600A4B1B6903F00203FB60084BF9
:10270400074A1169FA886FEA020222F00300FA68A4
:1027140002430A401A6107F11407BD4680BC7047A2
:102724000078004080B400AF034B4FF001029A6080
:10273400BD4680BC704700BF0030024080B483B007
:1027440000AF7860054B7A681A60044B1B68184622
:1027540007F10C07BD4680BC704700BF0030024043
:1027640080B485B000AF786039604FF00003FB603F
:102774004FF00003FB600BE00B4BFA684FEA820258
:1027840079688A1812681A60FB6803F10103FB6018
:10279400FA683B689A42EFD3034B1B68184607F16B
:1027A4001407BD4680BC70470030024080B400AFBF
:1027B400024B1B681846BD4680BC7047003002407F
:1027C40080B483B000AF0346FB71044BFA791A71ED
:1027D40007F10C07BD4680BC704700BF00300240C3
:1027E40080B400AF034B1B79DBB21846BD4680BCF6
:1027F400704700BF0030024080B500AF4FF000507A
:102804004FF0010103F0FAFB4FF000504FF00001CC
:1028140003F0F4FB80BD00BF80B485B000AF7860E6
:1028240039604FF00003FB604FF00003BB60144BB2
:102834001B68FB607B6840F6FE7202FA03F36FEAE2
:102844000303FA681340FB603B681A683B685B68E3
:102854001A433B689B681A433B68DB681343BB60BD
:102864007B68BA6802FA03F3FA681343FB60044B0B
:10287400FA681A6007F11407BD4680BC704700BFB0
:102884000074004080B483B000AF78607B684FF080
:1028940000021A607B684FF000025A607B684FF0B8
:1028A40000029A607B684FF00002DA6007F10C07BF
:1028B400BD4680BC704700BF80B483B000AF786071
:1028C4000B46FB70FB78002B0AD00E4B0D4A1168A7
:1028D4007A684FF0010000FA02F20A431A600BE032
:1028E400084B084A11687A684FF0010000FA02F2B6
:1028F4006FEA02020A401A6007F10C07BD4680BC69
:10290400704700BF0074004080B483B000AF7860AB
:102914000B46FB70FB78002B0AD00E4B0D4A116856
:102924007A684FF4805000FA02F20A431A600BE00E
:10293400084B084A11687A684FF4805000FA02F292
:102944006FEA02020A401A6007F10C07BD4680BC18
:10295400704700BF0074004080B483B000AF78605B
:102964000B46FB70FB78002B0CD0104B0F4A5168C0
:102974007A684FEA12124FF0010000FA02F20A4399
:102984005A600DE0094B094A51687A684FEA1212FD
:102994004FF0010000FA02F26FEA02020A405A60A4
:1029A40007F10C07BD4680BC704700BF00740040AF
:1029B40080B483B000AF0346FB71FB79002B06D0D3
:1029C400084B084A526842F003025A6005E0054B7E
:1029D400044A526822F003025A6007F10C07BD460C
:1029E40080BC70470074004080B485B000AFF860CC
:1029F400B9601346FB71FB79002B09D00C4B0C4AD0
:102A04001168FA68B86800FA02F20A431A600AE028
:102A1400074B074A1168FA68B86800FA02F26FEACD
:102A240002020A401A6007F11407BD4680BC7047D1
:102A34000074004080B485B000AF78600B467B80A2
:102A44004FF00003FB60084BFB60FA687B68D31807
:102A540003F10803FB60FB687A881A6007F1140726
:102A6400BD4680BC704700BF0074004080B485B090
:102A740000AF78600B467B804FF00003FB60084B8F
:102A8400FB60FA687B68D31803F11403FB60FB68EE
:102A94007A881A6007F11407BD4680BC704700BFEE
:102AA4000074004080B485B000AF786013460A46D5
:102AB4007A803B804FF00003FB604FF00003BB6063
:102AC4007B68082B06D17B884FEA03223B8813439B
:102AD400FB6005E07B884FEA03423B881343FB60BD
:102AE400074BBB607A68BB68D31803F12003BB6053
:102AF400BB68FA681A6007F11407BD4680BC7047CA
:102B04000074004080B485B000AF78604FF00003DB
:102B1400FB60094BFB607B684FEA9302FB68D318A8
:102B240003F12C03FB60FB681B689BB2184607F19A
:102B34001407BD4680BC70470074004080B400AFE9
:102B4400034B1B684FEA13431846BD4680BC7047CD
:102B5400002004E080B400AF044B1B684FEA035329
:102B64004FEA13531846BD4680BC7047002004E06A
:102B740080B483B000AF78600B46FB70FB78002B09
:102B840006D00A4B094A51687A680A435A6007E03A
:102B9400064B064A51687A686FEA02020A405A6094
:102BA40007F10C07BD4680BC704700BF002004E05D
:102BB40080B483B000AF78607B681A684FF6FE7308
:102BC40013407A6813607B684FF000021A607B68D8
:102BD4004FF000025A607B684FF000029A607B68F5
:102BE4004FF00002DA607A68434B9A4206D1434BB5
:102BF400424A526842F00F025A6077E07A68404BCA
:102C04009A4206D13D4B3D4A526842F0F0025A6066
:102C14006CE07A683B4B9A4206D1384B374A52688B
:102C240042F470625A6061E07A68374B9A4206D186
:102C3400324B324A526842F470425A6056E07A6823
:102C4400324B9A4206D12D4B2C4A526842F47022E0
:102C54005A604BE07A682E4B9A4206D1274B274A9A
:102C6400526842F470025A6040E07A68294B9A42F2
:102C740006D1224B214A526842F070625A6035E014
:102C84007A68254B9A4206D1244B244A526842F072
:102C94000F025A602AE07A68214B9A4206D11F4BF0
:102CA4001E4A526842F0F0025A601FE07A681D4BD7
:102CB4009A4206D1194B194A526842F470625A601A
:102CC40014E07A68184B9A4206D1144B134A52689E
:102CD40042F470425A6009E07A68144B9A4205D172
:102CE4000E4B0E4A526842F470225A6007F10C07E8
:102CF400BD4680BC704700BF08000240000002408F
:102D04001C000240300002404400024058000240CF
:102D14006C000240800002400804024000040240AB
:102D24001C0402403004024044040240580402409F
:102D340080B485B000AF786039604FF00003FB6069
:102D44007B681B68FB60FB6823F4FF4323F070037C
:102D5400FB603B689A683B681B6A1A433B681B69C3
:102D64001A433B685B691A433B689B691A433B6897
:102D7400DB691A433B685B6A1A433B689B6A1343EB
:102D8400FA681343FB607B68FA681A603B68DA6888
:102D94007B685A603B681A687B689A603B685A682B
:102DA4007B68DA6007F11407BD4680BC704700BF3A
:102DB40080B483B000AF78607B684FF000021A6083
:102DC4007B684FF000025A607B684FF000029A6003
:102DD4007B684FF00002DA607B684FF000021A61F2
:102DE4007B684FF000025A617B684FF000029A61E1
:102DF4007B684FF00002DA617B684FF000021A62D0
:102E04007B684FF000025A627B684FF000029A62BE
:102E140007F10C07BD4680BC704700BF80B483B087
:102E240000AF78600B46FB70FB78002B06D07B6804
:102E34001B6843F001027B681A6006E07B681A682D
:102E44004FF6FE7313407A68136007F10C07BD4612
:102E540080BC704780B485B000AFF860B960134699
:102E6400FB71FB79002B06D0FB681A68BB681A4318
:102E7400FB681A6007E0FB681A68BB686FEA030323
:102E84001A40FB681A6007F11407BD4680BC7047FE
:102E940080B483B000AF78600B467B807A887B680F
:102EA4005A6007F10C07BD4680BC704780B483B0FC
:102EB40000AF78607B685B689BB2184607F10C072B
:102EC400BD4680BC704700BF80B485B000AF786059
:102ED4004FF00003FB734FF00003BB607B6803F00B
:102EE4008053002B03D00D4B1B68BB6002E00C4BDE
:102EF4001B68BB60BA687B681340002B03D04FF09B
:102F04000103FB7302E04FF00003FB73FB7B1846E5
:102F140007F11407BD4680BC704700BF000402409F
:102F24000000024080B483B000AF78607B6803F097
:102F34008053002B03D0064B7A685A6002E0054B9D
:102F44007A685A6007F10C07BD4680BC704700BF21
:102F5400000402400000024080B485B000AF7860F5
:102F64004FF00003FB734FF00003BB607B6803F07A
:102F74008053002B03D00D4B1B68BB6002E00C4B4D
:102F84001B68BB60BA687B681340002B03D04FF00A
:102F94000103FB7302E04FF00003FB73FB7B184655
:102FA40007F11407BD4680BC704700BF000402400F
:102FB4000000024080B483B000AF78607B6803F007
:102FC4008053002B03D0064B7A685A6002E0054B0D
:102FD4007A685A6007F10C07BD4680BC704700BF91
:102FE400000402400000024080B400AF0A4B4FF0DE
:102FF40000021A60084B4FF000025A60064B4FF073
:1030040000029A60044B4FF00002DA60024B034A5C
:103014005A61BD4680BC704700040140FFFF0F00A9
:1030240080B485B000AF78604FF00003FB60354B8F
:10303400FB607B689B79002B51D0324B314A11687D
:103044007A6812686FEA02020A401A602D4B2D4A10
:1030540051687A6812686FEA02020A405A607B6813
:103064001B79FA68D318FB60FB68FA6811687A6800
:1030740012680A431A60234B224A91687A681268DC
:103084006FEA02020A409A601E4B1E4AD1687A68AF
:1030940012686FEA02020A40DA607B685B79102BDF
:1030A4000ED1184B174A91687A6812680A439A60DD
:1030B400144B144AD1687A6812680A43DA601CE037
:1030C400104BFB607B685B79FA68D318FB60FB6884
:1030D400FA6811687A6812680A431A600DE07B681E
:1030E4001B79FA68D318FB60FB68FA6811687A6880
:1030F40012686FEA02020A401A6007F11407BD461B
:1031040080BC70470004014080B483B000AF786095
:103114007B684FF000021A607B684FF000021A715E
:103124007B684FF00C025A717B684FF000029A7171
:1031340007F10C07BD4680BC704700BF80B483B064
:1031440000AF7860054B054A11697A680A431A6131
:1031540007F10C07BD4680BC704700BF0004014066
:1031640080B485B000AF78604FF00003FB730A4B66
:103174005A697B681340002B03D04FF00103FB73A3
:1031840002E04FF00003FB73FB7B184607F11407C2
:10319400BD4680BC704700BF0004014080B483B0CA
:1031A40000AF7860034B7A685A6107F10C07BD469B
:1031B40080BC70470004014080B485B000AF7860E3
:1031C4004FF00003FB734FF00003BB600D4B1A6814
:1031D4007B681340BB600B4B5A697B681340002B20
:1031E40006D0BB68002B03D04FF00103FB7302E051
:1031F4004FF00003FB73FB7B184607F11407BD4631
:1032040080BC70470004014080B483B000AF786094
:10321400034B7A685A6107F10C07BD4680BC7047BE
:103224000004014080B485B000AF78604FF0000323
:10323400FB60094B1B68FB60FB6803F03803FB6011
:10324400FA687B681343FB60034BFA681A6007F162
:103254001407BD4680BC70470020024080B483B090
:1032640000AF7860084B084A126822F008021A601E
:10327400054B054A11687A680A431A6007F10C077E
:10328400BD4680BC704700BF0020024080B483B0BC
:1032940000AF7860084B084A126822F010021A60E6
:1032A400054B054A11687A680A431A6007F10C074E
:1032B400BD4680BC704700BF0020024080B400AF10
:1032C400044B054A5A60034B044A5A60BD4680BC0D
:1032D400704700BF0020024023016745AB89EFCD52
:1032E40080B400AF044B054A5A60034B044A5A6049
:1032F400BD4680BC704700BF0020024023016745E3
:10330400AB89EFCD80B400AF044B044A126942F09C
:1033140080021A61BD4680BC704700BF0020024095
:1033240080B400AF044B044A126942F080021A616F
:10333400BD4680BC704700BF0020024080B584B009
:1033440000AF78604FF00403FB734FF4302000F0BB
:1033540009FC0346FB73FB7B042B1BD1104B104A67
:10336400126942F002021A610D4B7A685A610C4BE1
:103374000B4A126942F040021A614FF4302000F007
:10338400F1FB0346FB73064A054B196941F6FD73CD
:103394000B401361FB7B184607F11007BD4680BD47
:1033A4000020024080B582B000AF4FF00403FB71EF
:1033B4004FF4302000F0D6FB0346FB71FB79042B5D
:1033C40018D10F4B0E4A126942F004021A610C4BD9
:1033D4000B4A126942F040021A614FF4302000F0A7
:1033E400C1FB0346FB71064A054B196941F6FB73A1
:1033F4000B401361FB79184607F10807BD4680BDF1
:103404000020024080B582B000AF4FF00403FB718E
:103414004FF4302000F0CCFB0346FB71FB79042B06
:1034240018D10F4B0E4A126942F004021A610C4B78
:103434000B4A126942F040021A614FF4302000F046
:10344400B7FB0346FB71064A054B196941F6FB734A
:103454000B401361FB79184607F10807BD4680BD90
:103464000020024080B582B000AF4FF0A503FB807E
:103474004FF004037B7100F081FA0346002B02D065
:103484004FF00003FB804FF4302000F06BFB034649
:103494007B717B79042B45D1254B264A9A60244BBA
:1034A400254A9A60224B224A126942F020021A618C
:1034B4001F4B1F4A126942F040021A614FF4302038
:1034C40000F050FB03467B717B79042B20D1184A12
:1034D400174B196941F6DF730B401361144B144AFF
:1034E400126942F010021A61144BFA881A804FF4E0
:1034F400005000F037FB03467B717B79052B11D01C
:103504000B4A0B4B196941F6EF730B40136109E049
:103514007B79052B06D0064A054B196941F6EF73F2
:103524000B4013617B79184607F10807BD4680BD3F
:103534000020024023016745AB89EFCD00F8FF1F4F
:1035440080B584B000AF786039604FF00403FB733A
:103554004FF00003BB604FF4005000F003FB034640
:10356400FB73FB7B042B31D11B4B1B4A126942F0CA
:1035740001021A617B683A6892B21A804FF40050D3
:1035840000F0F0FA0346FB73FB7B042B17D17B6836
:1035940003F10203BB60BB683A684FEA124292B27D
:1035A4001A804FF4005000F0DDFA0346FB730A4A18
:1035B400094B196941F6FE730B40136106E0064A94
:1035C400054B196941F6FE730B401361FB7B1846EA
:1035D40007F11007BD4680BD0020024080B584B0CD
:1035E40000AF78600B467B804FF00403FB734FF40D
:1035F400005000F0B7FA0346FB73FB7B042B15D194
:103604000D4B0D4A126942F001021A617B687A88F7
:103614001A804FF4005000F0A5FA0346FB73064AE3
:10362400054B196941F6FE730B401361FB7B184689
:1036340007F11007BD4680BD0020024080B584B06C
:1036440000AF78600B46FB704FF00403FB734FF43C
:10365400005000F087FA0346FB73FB7B042B1FD159
:10366400124B134A9A60114B124A9A600F4B0F4A3D
:10367400126942F010021A617B68FA7892B21A80D9
:103684004FF4005000F06EFA0346FB73FB7B052BEE
:1036940006D0064A054B196941F6EF730B401361D6
:1036A400FB7B184607F11007BD4680BD0020024091
:1036B40023016745AB89EFCD80B586B000AF786054
:1036C4004FF6FF73BB824FF6FF737B824FF6FF7397
:1036D4003B824FF6FF73FB814FF00403FB757B685D
:1036E4006FEA03037B607B689BB2DBB2BB827B68BF
:1036F40003F47F434FEA13237B827B6803F47F0345
:103704004FEA13433B827B684FEA1363FB814FF418
:10371400005000F027FA0346FB75FB7D042B4ED1C5
:103724002A4B2B4A9A60294B2A4A9A60274B274AEC
:10373400126942F010021A61BB8AFF2B08D0264B93
:10374400BA8A1A814FF4005000F00CFA0346FB7554
:10375400FB7D042B0BD17B8AFF2B08D01E4B7A8A6E
:103764005A814FF4005000F0FDF90346FB75FB7DD0
:10377400042B0BD13B8AFF2B08D0174B3A8A9A8132
:103784004FF4005000F0EEF90346FB75FB7D042B6B
:103794000BD1FB89FF2B08D00F4BFA89DA814FF448
:1037A400005000F0DFF90346FB75FB7D052B06D0C6
:1037B400064A064B196941F6EF730B401361FB7D12
:1037C400184607F11807BD4680BD00BF002002401F
:1037D40023016745AB89EFCD00F8FF1F80B584B0A6
:1037E40000AF0346FB714FF00403FB734FF430202A
:1037F40000F0B8F90346FB73FB7B042B4ED12A4B34
:103804002A4A9A60284B2A4A9A60274B264A126908
:1038140042F020021A61244B234A126942F040020A
:103824001A614FF4302000F09DF90346FB73FB7BD3
:10383400042B29D11C4A1C4B196941F6DF730B4038
:103844001361194B184A126942F010021A61FB798C
:10385400002B04D0174B4FF000021A8003E0154BE5
:103864004FF0A5021A804FF4302000F07BF9034694
:10387400FB73FB7B052B11D00B4A0B4B196941F6EB
:10388400EF730B40136109E0FB7B052B06D0064A5E
:10389400054B196941F6DF730B401361FB7B184636
:1038A40007F11007BD4680BD002002402301674593
:1038B400AB89EFCD00F8FF1F80B584B000AF13468D
:1038C4000246FA800A46BA807B804FF00403FB73F9
:1038D4001B4B1C4A9A601A4B1B4A9A604FF40050C7
:1038E40000F040F90346FB73FB7B042B21D1144BFE
:1038F400134A126942F010021A61144B7988BA888B
:103904000A4391B2FA880A4392B242F0F80292B2A0
:103914005A804FF4005000F025F90346FB73FB7BFB
:10392400052B06D0064A064B196941F6EF730B4086
:103934001361FB7B184607F11007BD4680BD00BF2D
:103944000020024023016745AB89EFCD00F8FF1F3B
:1039540080B400AF034BDB694FEA93031846BD46BE
:1039640080BC70470020024080B400AF024B1B6A49
:103974001846BD4680BC70470020024080B483B026
:1039840000AF4FF00003FB71094BDB6903F0020346
:10399400002B03D04FF00103FB7102E04FF0000352
:1039A400FB71FB79184607F10C07BD4680BC7047D4
:1039B4000020024080B483B000AF4FF00003FB71DD
:1039C400094B1B6803F02003002B03D04FF00103C5
:1039D400FB7102E04FF00003FB71FB79184607F11D
:1039E4000C07BD4680BC70470020024080B483B001
:1039F40000AF78600B46FB70FB78002B06D00A4BB7
:103A0400094A11697A680A431A6107E0064B064AB3
:103A140011697A686FEA02020A401A6107F10C0719
:103A2400BD4680BC704700BF0020024080B485B012
:103A340000AF78604FF00003FB737B68012B0DD15E
:103A4400104BDB6903F00103002B03D04FF001039B
:103A5400FB7310E04FF00003FB730CE0094BDA68D2
:103A64007B681340002B03D04FF00103FB7302E08B
:103A74004FF00003FB73FB7B184607F11407BD46A8
:103A840080BC70470020024080B483B000AF7860EF
:103A9400034B7A68DA6007F10C07BD4680BC7047B7
:103AA4000020024080B483B000AF4FF00403FB71E8
:103AB400134BDB6803F00103002B03D04FF0010329
:103AC400FB7116E00E4BDB6803F00403002B03D0FC
:103AD4004FF00203FB710CE0094BDB6803F01003A9
:103AE400002B03D04FF00303FB7102E04FF00403FB
:103AF400FB71FB79184607F10C07BD4680BC704783
:103B04000020024080B483B000AF4FF00403FB7187
:103B1400134BDB6803F00103002B03D04FF00103C8
:103B2400FB7116E00E4BDB6803F00403002B03D09B
:103B34004FF00203FB710CE0094BDB6803F0100348
:103B4400002B03D04FF00303FB7102E04FF004039A
:103B5400FB71FB79184607F10C07BD4680BC704722
:103B64000020024080B584B000AF78604FF00403B9
:103B7400FB73FFF7C7FF0346FB7307E0FFF7C2FFC2
:103B84000346FB737B6803F1FF337B60FB7B012BF4
:103B940002D17B68002BF1D17B68002B02D14FF05E
:103BA4000503FB73FB7B184607F11007BD4680BD78
:103BB40080B584B000AF78604FF00403FB73FFF767
:103BC400A1FF0346FB7307E0FFF79CFF0346FB736B
:103BD4007B6803F1FF337B60FB7B012B02D17B68A5
:103BE400002BF1D17B68002B02D14FF00503FB734E
:103BF400FB7B184607F11007BD4680BD80B483B037
:103C040000AF78607B68002B07D14FF020437A68BF
:103C140043F2DB0143F8221006E04FF020437A68B8
:103C240043F2D20143F822104FF020437A6802F1A4
:103C340001026FF0704143F82210054B7A686FF06F
:103C4400704143F8221007F10C07BD4680BC704751
:103C5400040100A080B483B000AF78607B68102BAF
:103C640010D1134B4FF018021A60114B4FF0400261
:103C74005A600F4B4FF0FC329A600D4B4FF0FC3200
:103C8400DA600FE00B4B4FF018021A60094B4FF04B
:103C940040025A60074B4FF0FC329A60054B4FF0DC
:103CA400FC32DA6007F10C07BD4680BC704700BFE8
:103CB400600000A0800000A080B400AF0B4B4FF068
:103CC40018021A60094B4FF000025A60074B4FF07C
:103CD400FC329A60054B4FF0FC32DA60034B4FF034
:103CE400FC321A61BD4680BC704700BFA00000A032
:103CF40080B483B000AF78604FF020437A681268D4
:103D0400796848687968896808437968C9680843A4
:103D14007968096908437968496908437968896950
:103D240008437968C96908437968096A0843796866
:103D3400496A08437968896A08437968C96A084303
:103D44007968096B014343F822107B689B68082B50
:103D54000DD14FF020437A6812684FF02041786803
:103D6400006851F8201041F0400143F822104FF050
:103D740020437A68126802F101027968496B086885
:103D84007968496B49684FEA011108437968496BBE
:103D940089684FEA012108437968496BC9684FEA89
:103DA400014108437968496B09694FEA01510843A5
:103DB4007968496B49694FEA016108437968496B3D
:103DC4008969014343F822107B68DB6AB3F5804FAD
:103DD40024D1184B7A6812687968896B0868796805
:103DE400896B49684FEA011108437968896B8968CE
:103DF4004FEA012108437968896B09694FEA015147
:103E040008437968896B49694FEA01610843796815
:103E1400896B8969014343F8221006E0054B7A68EF
:103E240012686FF0704143F8221007F10C07BD4689
:103E340080BC7047040100A080B487B000AF7860F4
:103E44004FF000037B614FF000033B614FF0000330
:103E5400FB607B685A687B689B681A437B68DB68F5
:103E64001A437B681B691A437B685B694FEA4323E7
:103E74001A437B689B694FEA4333134343F00803B7
:103E84007B617B68DB691A687B68DB695B684FEA86
:103E940003231A437B68DB699B684FEA03431A4395
:103EA4007B68DB69DB684FEA036313433B617B6830
:103EB4001B6A1A687B681B6A5B684FEA03231A4310
:103EC4007B681B6A9B684FEA03431A437B681B6A3F
:103ED400DB684FEA03631343FB607B681B68102BAA
:103EE40009D10C4B7A691A600A4B3A699A60094BFA
:103EF400FA68DA6008E0084B7A691A60064B3A6996
:103F04009A60054BFA68DA6007F11C07BD4680BC6D
:103F1400704700BF600000A0800000A080B483B0A0
:103F240000AF78602C4B7A6811687A6852684FEA5F
:103F3400422211437A6892684FEA42320A4342F0BD
:103F440010021A60244B7A68D26811687A68D268C1
:103F540052684FEA022211437A68D26892684FEAA3
:103F6400024211437A68D268D2684FEA02620A4375
:103F74009A60194B7A68126911687A6812695268F2
:103F84004FEA022211437A68126992684FEA0242A8
:103F940011437A681269D2684FEA02620A43DA600E
:103FA4000D4B7A68526911687A68526952684FEA0F
:103FB400022211437A68526992684FEA024211431D
:103FC4007A685269D2684FEA02620A431A6107F1B9
:103FD4000C07BD4680BC7047A00000A080B483B02D
:103FE40000AF78607B684FF000021A607B684FF086
:103FF40002025A607B684FF000029A607B684FF0BF
:104004000002DA607B684FF000021A617B684FF0AF
:1040140000025A617B684FF000029A617B684FF09E
:104024000002DA617B684FF000021A627B684FF489
:1040340080525A627B684FF400529A627B684FF058
:104044000002DA627B684FF000021A637B685B6BE4
:104054004FF00F021A607B685B6B4FF00F025A60DF
:104064007B685B6B4FF0FF029A607B685B6B4FF081
:104074000F02DA607B685B6B4FF00F021A617B689A
:104084005B6B4FF00F025A617B685B6B4FF0000271
:104094009A617B689B6B4FF00F021A607B689B6B85
:1040A4004FF00F025A607B689B6B4FF0FF029A60DF
:1040B4007B689B6B4FF00F02DA607B689B6B4FF061
:1040C4000F021A617B689B6B4FF00F025A617B6889
:1040D4009B6B4FF000029A6107F10C07BD4680BC50
:1040E400704700BF80B483B000AF78607B684FF046
:1040F40010021A607B684FF000025A607B684FF030
:1041040000029A607B684FF00002DA607B684FF02F
:1041140000021A617B684FF000025A617B684FF01D
:1041240000029A617B68DB694FF0FC021A607B68CD
:10413400DB694FF0FC025A607B68DB694FF0FC02DC
:104144009A607B68DB694FF0FC02DA607B681B6A6B
:104154004FF0FC021A607B681B6A4FF0FC025A6045
:104164007B681B6A4FF0FC029A607B681B6A4FF005
:10417400FC02DA6007F10C07BD4680BC704700BF43
:1041840080B483B000AF78607B684FF000021A609F
:104194007B684FF000025A607B684FF000029A601F
:1041A4007B68DB684FF0FC021A607B68DB684FF0C9
:1041B400FC025A607B68DB684FF0FC029A607B6803
:1041C400DB684FF0FC02DA607B681B694FF0FC028D
:1041D4001A607B681B694FF0FC025A607B681B699C
:1041E4004FF0FC029A607B681B694FF0FC02DA60B6
:1041F4007B685B694FF0FC021A607B685B694FF077
:10420400FC025A607B685B694FF0FC029A607B6831
:104214005B694FF0FC02DA6007F10C07BD4680BC15
:10422400704700BF80B483B000AF78600B46FB706A
:10423400FB78002B0CD04FF020434FF020427968DC
:1042440052F8212042F001017A6843F822100BE071
:104254004FF020424FF02043796853F82110054B6A
:104264000B40796842F8213007F10C07BD4680BC49
:10427400704700BFFEFF0F0080B483B000AF7860CA
:104284000B46FB70FB78002B10D07B68102B06D1FB
:10429400114B114A126842F004021A6016E00F4BE7
:1042A4000E4A126842F004021A600FE07B68102B79
:1042B40006D1094A084B1968094B0B40136005E005
:1042C400064A064B1968064B0B40136007F10C07AE
:1042D400BD4680BC704700BF600000A0800000A005
:1042E400FBFF0F0080B483B000AF0346FB71FB7982
:1042F400002B06D0084B084A126842F004021A60E8
:1043040005E0054A044B1968044B0B40136007F1A0
:104314000C07BD4680BC7047A00000A0FBFF0F0047
:1043240080B483B000AF78600B46FB70FB78002B41
:1043340010D07B68102B06D1114B114A126842F041
:1043440040021A6016E00F4B0E4A126842F0400217
:104354001A600FE07B68102B06D1094A084B1968D4
:10436400094B0B40136005E0064A064B1968064BDF
:104374000B40136007F10C07BD4680BC704700BFBB
:10438400600000A0800000A0BFFF0F0080B485B0D3
:1043940000AF78604FF00003FB607B68102B03D103
:1043A400064B5B69FB6002E0054B5B69FB60FB68E5
:1043B400184607F11407BD4680BC7047600000A092
:1043C400800000A080B485B000AFF860B9601346E7
:1043D400FB71FB79002B1BD0FB68102B06D11F4B04
:1043E4001E4A5168BA680A435A6032E0FB68B3F562
:1043F400807F06D11A4B1A4A5168BA680A435A6038
:1044040027E0184B174A5168BA680A435A6020E0FB
:10441400FB68102B08D1114B104A5168BA686FEA37
:1044240002020A405A6014E0FB68B3F5807F08D1A9
:104434000B4B0B4A5168BA686FEA02020A405A6091
:1044440007E0084B074A5168BA686FEA02020A405B
:104454005A6007F11407BD4680BC7047600000A095
:10446400800000A0A00000A080B485B000AF7860F8
:1044740039604FF00003FB734FF00003BB607B68AF
:10448400102B03D1104B5B68BB600AE07B68B3F56B
:10449400807F03D10D4B5B68BB6002E00C4B5B6813
:1044A400BB60BA683B681340002B03D04FF0010394
:1044B400FB7302E04FF00003FB73FB7B184607F12C
:1044C4001407BD4680BC7047600000A0800000A0B7
:1044D400A00000A080B483B000AF786039607B682E
:1044E400102B08D1114B114A51683A686FEA020245
:1044F4000A405A6014E07B68B3F5807F08D10C4B06
:104504000B4A51683A686FEA02020A405A6007E0AF
:10451400084B084A51683A686FEA02020A405A6036
:1045240007F10C07BD4680BC704700BF600000A0C7
:10453400800000A0A00000A080B487B000AF786025
:1045440039604FF00003FB754FF000033B614FF0FF
:104554000003FB604FF00003BB607B68102B03D1AA
:10456400164B5B683B610AE07B68B3F5807F03D13F
:10457400134B5B683B6102E0124B5B683B613A6939
:104584003B681340FB603B684FEAD3023B6913402E
:10459400BB60FB68002B06D0BB68002B03D04FF038
:1045A4000103FB7502E04FF00003FB75FB7D184629
:1045B40007F11C07BD4680BC704700BF600000A027
:1045C400800000A0A00000A080B483B000AF786099
:1045D40039607B68102B0AD1144B144A51683A682D
:1045E4004FEAD2026FEA02020A405A6018E07B687E
:1045F400B3F5807F0AD10E4B0D4A51683A684FEAF1
:10460400D2026FEA02020A405A6009E0094B094AE1
:1046140051683A684FEAD2026FEA02020A405A60CD
:1046240007F10C07BD4680BC704700BF600000A0C6
:10463400800000A0A00000A080B582B000AF786028
:104644007A683C4B9A420CD14FF004004FF00101C0
:1046540001F0B4FC4FF004004FF0000101F0AEFC97
:1046640064E07A68344B9A420CD14FF008004FF062
:10467400010101F0A3FC4FF008004FF0000101F02C
:104684009DFC53E07A682D4B9A420CD14FF01000F8
:104694004FF0010101F092FC4FF010004FF00001C7
:1046A40001F08CFC42E07A68254B9A420CD14FF021
:1046B40020004FF0010101F081FC4FF020004FF089
:1046C400000101F07BFC31E07A681E4B9A420CD168
:1046D4004FF040004FF0010101F070FC4FF040003A
:1046E4004FF0000101F06AFC20E07A68164B9A4210
:1046F4000CD14FF080004FF0010101F05FFC4FF04E
:1047040080004FF0000101F059FC0FE07A680F4B74
:104714009A420BD14FF480704FF0010101F04EFC2E
:104724004FF480704FF0000101F048FC07F10807D6
:10473400BD4680BD00080140000C0140001001404E
:104744000014014000180140001C014000200140F9
:1047540080B500AF4FF001004FF0010101F02EFCD5
:104764004FF001004FF0000101F028FC80BD00BFB4
:1047740080B489B000AF786039604FF00003FB610A
:104784004FF000033B614FF00003BB614FF00003A7
:10479400FB604FF000037B614FF00003BB603B689C
:1047A400DB7803F00F03FB613B68DB7803F0100355
:1047B400002B04D03B689B78FA691343FB613B6888
:1047C4001B88DBB2002B4ED07B681B687B614FF0EB
:1047D4000003BB6141E0BB694FF0010202FA03F33D
:1047E400FB603B681B881A46FB6813403B613A69CF
:1047F400FB689A422DD1BB694FEA8303FB60FB68D7
:104804004FF00F0202FA03F3BB60BB686FEA0303C5
:104814007A6913407B61FB68FA6902FA03F37A69E7
:1048240013437B613B68DB78282B07D1BB694FF0CE
:10483400010202FA03F27B685A610AE03B68DB7802
:10484400482B06D1BB694FF0010202FA03F27B68E0
:104854001A61BB6903F10103BB61BB69072BBAD9B8
:104864007B687A691A603B681B88FF2B53D97B6885
:104874005B687B614FF00003BB6146E0BB6903F1F9
:1048840008034FF0010202FA03F3FB603B681B8844
:104894001A46FB6813403B613A69FB689A4230D17F
:1048A400BB694FEA8303FB60FB684FF00F0202FA17
:1048B40003F3BB60BB686FEA03037A6913407B614F
:1048C400FB68FA6902FA03F37A6913437B613B6874
:1048D400DB78282B08D1BB6903F108034FF00102F0
:1048E40002FA03F27B685A613B68DB78482B08D1F3
:1048F400BB6903F108034FF0010202FA03F27B687B
:104904001A61BB6903F10103BB61BB69072BB5D90C
:104914007B687A695A6007F12407BD4680BC7047FA
:1049240080B483B000AF78607B684FF6FF721A8062
:104934007B684FF002029A707B684FF00402DA70D1
:1049440007F10C07BD4680BC704700BF80B485B03A
:1049540000AF78600B467B804FF00003FB737B68ED
:104964009A687B881340002B03D04FF00103FB733C
:1049740002E04FF00003FB73FB7B184607F11407BA
:10498400BD4680BC704700BF80B483B000AF786080
:104994007B689B689BB2184607F10C07BD4680BC38
:1049A400704700BF80B485B000AF78600B467B8051
:1049B4004FF00003FB737B68DA687B881340002B9D
:1049C40003D04FF00103FB7302E04FF00003FB73CD
:1049D400FB7B184607F11407BD4680BC704700BF37
:1049E40080B483B000AF78607B68DB689BB2184604
:1049F40007F10C07BD4680BC704700BF80B483B08C
:104A040000AF78600B467B807A887B681A6107F177
:104A14000C07BD4680BC704780B483B000AF78609B
:104A24000B467B807A887B685A6107F10C07BD4688
:104A340080BC704780B483B000AF786013460A46E8
:104A44007A807B707B78002B03D07A887B681A612C
:104A540002E07A887B685A6107F10C07BD4680BC86
:104A6400704700BF80B483B000AF78600B467B8092
:104A74007A887B68DA6007F10C07BD4680BC704712
:104A840080B485B000AF78600B467B804FF48033F0
:104A9400FB607B88FA681343FB607B68FA689A6161
:104AA4007A887B689A617B68FA689A617B689B69FB
:104AB400FB607B689B69FB6007F11407BD4680BC03
:104AC400704700BF80B485B000AF02460B46FA7150
:104AD400BB714FF00003FB600C4B1B68FB60FA6872
:104AE4004FF680731340FB60FB794FEA0313FA68B7
:104AF4001343FB60BB79FA681343FB60034BFA680A
:104B04001A6007F11407BD4680BC704700000140DD
:104B140080B483B000AF0346FB71044BFA791A608A
:104B240007F10C07BD4680BC704700BF1C00204243
:104B340080B487B000AF78600B46FB704FF0000381
:104B44003B614FF00003FB604FF000037B614FF0CB
:104B54000003BB607B68002B03DA344BDB697B61A9
:104B640002E0324B5B687B617B6803F470234FEA9D
:104B74001343BB607B684FEA03434FEA13433B6133
:104B84007B6803F44013B3F5401F0AD17B6923F01B
:104B940070637B61254B254A526822F070625A602B
:104BA40026E07B6803F48013002B10D0BB684FF021
:104BB400030202FA03F3FB60FB686FEA03037A69FA
:104BC40013407B617B6943F070637B6110E07B6819
:104BD4004FEA53534FEA03133A6902FA03F36FEAB5
:104BE40003037A6913407B617B6943F070637B61E3
:104BF400FB78002B0AD07B684FEA53534FEA031328
:104C04003A6902FA03F37A6913437B617B68002BE8
:104C140003DA064B7A69DA6102E0044B7A695A6076
:104C240007F11C07BD4680BC704700BF000001406F
:104C340090B484B000AF02460B46FA71BB714FF0DA
:104C44000003FB60BB7903F003034FEA83034FF0D7
:104C54000F0202FA03F3FB601A4BBA794FEA92028D
:104C6400D2B21849B8794FEA9000C0B200F10200FC
:104C740051F82000F9686FEA0101014002F10202D3
:104C840043F822100F4BBA794FEA9202D2B20D497F
:104C9400B8794FEA9000C0B200F1020051F8200048
:104CA400FC79B97901F003014FEA810104FA01F1B9
:104CB400014302F1020243F8221007F11007BD4636
:104CC40090BC70470000014080B483B000AF7860AE
:104CD400034B7A681A6007F10C07BD4680BC704725
:104CE400DC00204280B582B000AF78607A68104B57
:104CF4009A420CD14FF400104FF0010101F07EF9FB
:104D04004FF400104FF0000101F078F90BE04FF47C
:104D140080004FF0010101F071F94FF480004FF071
:104D2400000101F06BF907F10807BD4680BD00BF23
:104D34000054004080B58AB000AF786039604FF00D
:104D44000003FB844FF000037B844FF00403BB8417
:104D54005D4BFB617B689B88FB84FB8C23F03F03EA
:104D6400FB8407F10803184601F00AF83B69FB616C
:104D7400FA69564BA3FB02134FEA93437B84FA8CE4
:104D84007B8C1343FB847B68FA8C9A807B681B883A
:104D94009BB223F001039AB27B681A804FF00003A0
:104DA400FB843B681A684A4B9A4218D83B681B68D4
:104DB4004FEA4303FA69B2FBF3F3BB84BB8C032BC6
:104DC40002D84FF00403BB84FA8CBB8C1343FB84DE
:104DD4007B8C03F101039AB27B681A8448E03B6838
:104DE400DA884BF6FF739A420AD13B681A68134675
:104DF4004FEA43039B18FA69B2FBF3F3BB8410E058
:104E04003B681A6813464FEA83039B184FEA8302F0
:104E14009B18FA69B2FBF3F3BB84BB8C43F4804365
:104E2400BB84BB8C4FEA03534FEA1353002B03D1CB
:104E3400BB8C43F00103BB84BA8CFB8C13439BB241
:104E44006FEA43436FEA5343FB847B8C4FF49672BF
:104E540002FB03F31F4A82FB03124FEAA2124FEA3A
:104E6400E373D31A9BB203F101039AB27B681A84E9
:104E74007B68FA8C9A837B681B889BB243F001039E
:104E84009AB27B681A807B681B88FB84FB8C23F4B2
:104E9400816323F00203FB843B689A883B685B8947
:104EA40013439AB2FB8C1343FB847B68FA8C1A80FD
:104EB4003B689A893B681B8913439AB27B681A81C1
:104EC40007F12807BD4680BD00127A0083DE1B432C
:104ED400A0860100D34D621080B483B000AF786027
:104EE4007B6841F288321A607B684FF000029A8036
:104EF4007B684BF6FF72DA807B684FF000021A8100
:104F04007B684FF000025A817B684FF480429A819B
:104F140007F10C07BD4680BC704700BF80B483B066
:104F240000AF78600B46FB70FB78002B08D07B68E1
:104F34001B889BB243F001039AB27B681A8007E096
:104F44007B681B889BB223F001039AB27B681A80AA
:104F540007F10C07BD4680BC704700BF80B483B026
:104F640000AF78600B46FB70FB78002B08D07B68A1
:104F74009B889BB243F400639AB27B689A8007E0F3
:104F84007B689B889BB223F400639AB27B689A8007
:104F940007F10C07BD4680BC704700BF80B483B0E6
:104FA40000AF78600B46FB70FB78002B08D07B6861
:104FB4009B889BB243F480539AB27B689A8007E043
:104FC4007B689B889BB223F480539AB27B689A8057
:104FD40007F10C07BD4680BC704700BF80B483B0A6
:104FE40000AF78600B46FB70FB78002B08D07B6821
:104FF4001B889BB243F480739AB27B681A8007E0E3
:105004007B681B889BB223F480739AB27B681A80F6
:1050140007F10C07BD4680BC704700BF80B483B065
:1050240000AF78600B46FB70FB78002B08D07B68E0
:105034001B889BB243F400739AB27B681A8007E022
:105044007B681B889BB223F400739AB27B681A8036
:1050540007F10C07BD4680BC704700BF80B483B025
:1050640000AF78600B46FB70FB78002B08D07B68A0
:105074001B889BB243F480639AB27B681A8007E072
:105084007B681B889BB223F480639AB27B681A8086
:1050940007F10C07BD4680BC704700BF80B485B0E3
:1050A40000AF78600B46FB704FF00003FB817B6818
:1050B4009B89FB81FB8923F0FE03FB81FB789BB278
:1050C40003F0FE039AB2FB8913439BB2FB817B6816
:1050D400FA899A8107F11407BD4680BC704700BF66
:1050E40080B483B000AF78600B46FB70FB78002B74
:1050F40008D07B689B899BB243F001039AB27B681A
:105104009A8107E07B689B899BB223F001039AB2E2
:105114007B689A8107F10C07BD4680BC704700BFCD
:1051240080B483B000AF78600B46FB70FB78002B33
:1051340008D07B681B889BB243F040039AB27B681B
:105144001A8007E07B681B889BB223F040039AB265
:105154007B681A8007F10C07BD4680BC704700BF0E
:1051640080B483B000AF786013460A467A807B70BF
:105174007B78002B08D07B689B889AB27B8813438A
:105184009AB27B689A800AE07B689B889AB27B8893
:105194006FEA03039BB213409AB27B689A8007F1CB
:1051A4000C07BD4680BC704780B483B000AF786004
:1051B4000B46FB70FB789AB27B681A8207F10C07E6
:1051C400BD4680BC704700BF80B483B000AF786038
:1051D4007B681B8A9BB2DBB2184607F10C07BD46FD
:1051E40080BC704780B483B000AF786013460A4631
:1051F400FA70BB70BB78002B04D0FB7843F001033A
:10520400FB7003E0FB7823F00103FB70FB789AB298
:105214007B681A8207F10C07BD4680BC704700BF4B
:1052240080B485B000AF78600B46FB704FF000038C
:10523400FB607B68FB60FA78FB68D318FB60FB6853
:105244001B889BB2184607F11407BD4680BC704703
:1052540080B483B000AF78600B46FB70FB78002B02
:105264000AD07B681B889BB26FEA43436FEA5343BF
:105274009AB27B681A8009E07B681B889BB24FEA6C
:1052840043434FEA53439AB27B681A8007F10C07F1
:10529400BD4680BC704700BF80B483B000AF786067
:1052A4000B467B807B88B3F5006F08D17B681B8835
:1052B4009BB243F400639AB27B681A8007E07B6870
:1052C4001B889BB223F400639AB27B681A8007F1AF
:1052D4000C07BD4680BC704780B483B000AF7860D3
:1052E4000B467B807B88B3F5005F08D17B681B8805
:1052F4009BB243F400539AB27B681A8007E07B6840
:105304001B889BB223F400539AB27B681A8007F17E
:105314000C07BD4680BC704780B483B000AF786092
:105324000B46FB70FB78002B08D07B681B889BB274
:1053340043F480539AB27B681A8007E07B681B8829
:105344009BB223F480539AB27B681A8007F10C074E
:10535400BD4680BC704700BF80B483B000AF7860A6
:105364000B467B807B88B3F5006F08D17B681B8874
:105374009BB243F400639AB27B681A8007E07B68AF
:105384001B889BB223F400639AB27B681A8007F1EE
:105394000C07BD4680BC704780B483B000AF786012
:1053A4000B46FB70FB78002B08D07B681B889BB2F4
:1053B40043F020039AB27B681A8007E07B681B885D
:1053C4009BB223F020039AB27B681A8007F10C0782
:1053D400BD4680BC704700BF80B483B000AF786026
:1053E4007B681B8B9BB24FEA13239BB2DBB218463C
:1053F40007F10C07BD4680BC704700BF80B483B082
:1054040000AF78600B46FB70FB78002B08D07B68FC
:105414001B889BB243F010039AB27B681A8007E0A2
:105424007B681B889BB223F010039AB27B681A80B6
:1054340007F10C07BD4680BC704700BF80B483B041
:1054440000AF78600B46FB70FB78002B08D17B68BB
:105454001B889BB243F080039AB27B681A8007E0F2
:105464007B681B889BB223F080039AB27B681A8006
:1054740007F10C07BD4680BC704700BF80B483B001
:1054840000AF78600B467B807B88B3F5804F08D0F3
:105494007B689B8B9BB223F480439AB27B689A838C
:1054A40007E07B689B8B9BB243F480439AB27B6892
:1054B4009A8307F10C07BD4680BC704780B487B05F
:1054C40000AF786039604FF000033B614FF0000398
:1054D400FB604FF00003BB604FF00003FB757B687B
:1054E4009B8A9BB2FB607B681B8B9BB2BB60BB68D7
:1054F4004FEA0343BB60FA68BB68134323F07F435E
:105504003B613A693B681A403B689A4203D14FF0C9
:105514000103FB7502E04FF00003FB75FB7D1846A9
:1055240007F11C07BD4680BC704700BF80B487B03C
:1055340000AF78604FF000037B614FF000033B61E4
:105544004FF00003FB607B689B8A9BB23B617B68E6
:105554001B8B9BB2FB60FB684FEA0343FB603A6919
:10556400FB68134323F07F437B617B69184607F193
:105574001C07BD4680BC704780B487B000AF78601C
:1055840039604FF00003FB754FF000033B614FF0AF
:105594000003FB607B68FB603B684FEA13733B616D
:1055A4003B6823F07F433B603B69002B04D0FB68DE
:1055B40003F11403FB6007E03B684FEA13433B60CD
:1055C400FB6803F11803FB60FB681A683B6813402F
:1055D400002B03D04FF00103FB7502E04FF00003F2
:1055E400FB75FB7D184607F11C07BD4680BC704760
:1055F40080B485B000AF786039604FF00003FB6081
:105604003B6823F07F43FB60FB689BB26FEA0303B4
:105614009AB27B689A8207F11407BD4680BC704732
:1056240080B485B000AF786039604FF00003FB733D
:105634004FF00003BB603B6803F0E0634FEA1342A2
:105644007B689B889BB21340BB603B6823F07F431D
:105654003B607B689B8A9BB21A463B681340002BD5
:1056640006D0BB68002B03D04FF00103FB7302E0AC
:105674004FF00003FB73FB7B184607F11407BD468C
:1056840080BC704780B485B000AF786039604FF05B
:105694000003FB603B6823F07F43FB60FB689BB225
:1056A4006FEA03039AB27B689A8207F11407BD4636
:1056B40080BC704780B483B000AF0346FB80044BCA
:1056C400FA881A6007F10C07BD4680BC704700BF1A
:1056D4000030004080B483B000AF0346FB71044B3C
:1056E400FA795A6007F10C07BD4680BC704700BFC9
:1056F4000030004080B483B000AF0346FB80044B0D
:10570400FA889A6007F10C07BD4680BC704700BF59
:105714000030004080B400AF034B4AF6AA221A605E
:10572400BD4680BC704700BF0030004080B400AF6D
:10573400034B4CF6CC421A60BD4680BC704700BF98
:105744000030004080B485B000AF0346FB804FF0CA
:105754000003FB73094BDA68FB881340002B03D06A
:105764004FF00103FB7302E04FF00003FB73FB7B7C
:10577400184607F11407BD4680BC7047003000404E
:1057840080B400AF30BFBD4680BC704780B400AF6A
:1057940020BFBD4680BC704780B500AF4FF080503D
:1057A4004FF0010100F02AFC4FF080504FF000014F
:1057B40000F024FC80BD00BF80B483B000AF03467A
:1057C400FB71044BFA791A6007F10C07BD4680BCE3
:1057D400704700BF20000E4280B483B000AF034680
:1057E400FB71044BFA791A6007F10C07BD4680BCC3
:1057F400704700BF10000E4280B485B000AF7860DF
:105804004FF00003FB60094B1B68FB60FB6823F04F
:10581400E003FB60FA687B681343FB60034BFA68A0
:105824001A6007F11407BD4680BC70470070004041
:1058340080B483B000AF0346FB71044BFA791A605D
:1058440007F10C07BD4680BC704700BFA0000E42A4
:1058540080B584B000AF78600B46FB704FF0000356
:10586400FB60134B1B68FB60FB6823F00303FB60C6
:10587400FA687B681343FB600D4BFA681A600D4BA2
:105884000C4A126942F004021A61FB78012B02D11E
:10589400FFF776FF01E0FFF779FF064B054A12692F
:1058A40022F004021A6107F11007BD4680BD00BF53
:1058B4000070004000ED00E080B500AF0A4B0A4ADA
:1058C400126842F004021A60074B074A126842F059
:1058D40002021A60054B054A126942F004021A6179
:1058E400FFF74EFF80BD00BF0070004000ED00E0F8
:1058F40080B485B000AF78604FF00003FB730A4BAF
:105904005A687B681340002B03D04FF00103FB73EC
:1059140002E04FF00003FB73FB7B184607F114070A
:10592400BD4680BC704700BF0070004080B483B0A7
:1059340000AF7860064B064A11687A684FEA820223
:105944000A431A6007F10C07BD4680BC704700BFCC
:105954000070004080B400AF134B134A126842F049
:1059640001021A60104A104B5968104B0B405360E7
:105974000D4A0D4B1B6823F0847323F480331360AA
:10598400094B094A126822F480221A60064B064A1F
:10599400526822F4FE025A60034B4FF41F029A60CD
:1059A400BD4680BC704700BF001002400000FFF8F5
:1059B40080B483B000AF7860134B134A126822F4AA
:1059C40080321A60104B104A126822F480221A6046
:1059D4007B68B3F5803F03D0B3F5802F07D00DE08B
:1059E400094B094A126842F480321A6007E0064BF8
:1059F400054A126842F4A0221A6000E000BF07F1D1
:105A04000C07BD4680BC70470010024080B582B0D0
:105A140000AF4FF000033B604FF00003FB714FF009
:105A24000003BB714FF0310000F038FB0346BB713B
:105A34003B6803F101033B603B68B3F5A06F02D000
:105A4400BB79002BEED04FF0310000F027FB03466A
:105A5400002B03D04FF00103FB7102E04FF0000371
:105A6400FB71FB79184607F10807BD4680BD00BFEE
:105A740080B485B000AF0346FB714FF00003FB60B8
:105A84000A4B1B68FB60FB6823F0F803FB60FB799F
:105A94004FEAC303FA681343FB60044BFA681A60C5
:105AA40007F11407BD4680BC704700BF00100240D8
:105AB40080B483B000AF0346FB71044BFA791A60DB
:105AC40007F10C07BD4680BC704700BF000042428E
