:020000040800F2
:1000000000000120F91700086D0F0008790F0008A3
:10001000810F0008890F0008910F00080000000000
:10002000000000000000000000000000990F000820
:10003000A50F000800000000B10F0008BD0F000868
:100040003D1800083D1800083D1800083D1800083C
:100050003D1800083D1800083D1800083D1800082C
:100060003D1800083D1800083D1800083D1800081C
:100070003D1800083D1800083D1800083D1800080C
:100080003D1800083D1800083D1800083D180008FC
:100090003D1800083D1800083D1800083D180008EC
:1000A0003D1800083D1800083D1800083D180008DC
:1000B0003D1800083D1800083D1800083D180008CC
:1000C0003D1800083D1800083D1800083D180008BC
:1000D0003D1800083D0A00083D1800083D180008BA
:1000E0003D1800083D1800083D1800083D1800089C
:1000F0003D1800083D1800083D1800083D1800088C
:100100003D1800083D1800083D1800083D1800087B
:100110003D1800083D1800083D1800083D1800086B
:100120003D1800083D1800083D1800083D1800085B
:1001300000000000000000000000000000000000BF
:1001400000000000000000000000000000000000AF
:10015000000000000000000000000000000000009F
:10016000000000000000000000000000000000008F
:10017000000000000000000000000000000000007F
:10018000000000000000000000000000000000006F
:10019000000000000000000000000000000000005F
:1001A000000000000000000000000000000000004F
:1001B000000000000000000000000000000000003F
:1001C000000000000000000000000000000000002F
:1001D000000000000000000000000000000000001F
:0401E0005FF8E0F1F3
:1001E40080B485B000AF78600023FB6002E0FB6858
:1001F4000133FB607A68FB6813441B78002BF6D14B
:10020400FB6818461437BD4680BC704780B485B07F
:1002140000AF786039607B68002B04D13B68002B09
:1002240001D100233CE07B68002B04D13B68002B08
:1002340001D0012334E07B68002B05D03B68002B00
:1002440002D14FF0FF332BE00023FB6012E07A6809
:10025400FB6813441B7819463A68FB6813441B78FF
:10026400CB1ABB60BB68002B01D0BB6818E0FB68ED
:100274000133FB607A68FB6813441B78002B05D0BC
:100284003A68FB6813441B78002BE0D17A68FB685A
:1002940013441B7819463A68FB6813441B78CB1A3D
:1002A40018461437BD4680BC704700BF80B586B081
:1002B40000AF786000233B617868FFF791FFF86036
:1002C400FB68002B01D10023DBE0FB68012B40F22B
:1002D400B6807B681B78302B40F0B1807B6801339B
:1002E4001B78782B05D07B6801331B78582B40F0A2
:1002F400A68002237B619CE07A687B6913441B78A7
:10030400303B362B00F2908001A252F823F000BF5C
:100314001904000819040008190400081904000845
:100324001904000819040008190400081904000835
:1003340019040008190400082D0400082D040008FD
:100344002D0400082D0400082D0400082D040008C5
:100354002D0400080504000805040008050400082D
:100364000504000805040008050400082D0400081D
:100374002D0400082D0400082D0400082D04000895
:100384002D0400082D0400082D0400082D04000885
:100394002D0400082D0400082D0400082D04000875
:1003A4002D0400082D0400082D0400082D04000865
:1003B4002D0400082D0400082D0400082D04000855
:1003C4002D0400082D0400082D0400082D04000845
:1003D4002D040008F1030008F1030008F1030008EC
:1003E400F1030008F1030008F10300083B691B0155
:1003F40079687A690A4412781344573B3B6115E0E3
:100404003B691B0179687A690A4412781344373BC3
:100414003B610BE03B691B0179687A690A441278F5
:100424001344303B3B6101E000232AE07B69013344
:100434007B617A69FB689A42FFF45EAF20E0002397
:100444007B6119E07A687B6913441B78303B092B84
:100454000DD83A6913469B0013445B0019467A6829
:100464007B6913441B780B44303B3B6101E0002360
:1004740007E07B6901337B617A69FB689A42E1D3C7
:100484003B6918461837BD4680BD00BF80B487B0AD
:1004940000AFF860B9607A60FB683B6100237B6160
:1004A40008E03A697B691344BA68D2B21A707B696E
:1004B40001337B617A697B689A42F2D3FB68184600
:1004C4001C37BD4680BC704780B489B000AFF8606B
:1004D400B9607A60FB68BB61BB687B610023FB6128
:1004E4000AE0BA69FB6913447969FA690A44127823
:1004F4001A70FB690133FB61FA697B689A42F0D395
:10050400FB6818462437BD4680BC704780B487B06A
:1005140000AFF860B9607A60FB707B681B687B6130
:100524007A69BB689A4208D2FA687B691344FA78FC
:100534001A707B695A1C7B681A60002318461C37A2
:10054400BD4680BC704700BF80B586B000AFF86080
:10055400B9607A603B6000237B610BE03A687B6999
:1005640013441B787A68B968F868FFF7CFFF7B6992
:1005740001337B613A687B6913441B78002BEDD10E
:10058400002318461837BD4680BD00BF80B586B02D
:1005940000AFF860B9607A600A220021F868FFF7BA
:1005A40075FF09237B614EE07B680A2B02D0102B78
:1005B40015D043E07B69FA681A44BB687968B3FBD9
:1005C400F1F1786800FB01F15B1ADBB23033DBB286
:1005D4001370BA687B68B2FBF3F3BB6030E0BB68AE
:1005E4007A68B3FBF2F2796801FB02F29B1A092BD9
:1005F4000FD87B69FA681A44BB687968B3FBF1F1D8
:10060400786800FB01F15B1ADBB23033DBB21370A4
:100614000EE07B69FA681A44BB687968B3FBF1F1B0
:10062400786800FB01F15B1ADBB23733DBB213707D
:10063400BA687B68B2FBF3F3BB6001E0002319E006
:100644007B69013B7B617B69002BADDA00237B6115
:1006540008E07B69FA6813441B78302B06D17B6968
:1006640001337B617B69082BF3DD00E000BF7B690C
:10067400FA68134418461837BD4680BD80B590B05B
:1006840000AFF860B9607A603B6000233B62BA68EF
:100694000021F868FFF7FAFE07F114030B2200218A
:1006A4001846FFF7F3FE7868FFF79AFD7863002396
:1006B400FB63F0E07A68FB6B13441B78252B40F056
:1006C400DD80FB6B5A1C7B6B9A420AD17A68FB6B08
:1006D40013441B7807F12002B968F868FFF716FF86
:1006E400DEE0FB6B01337A6813441B78583B202B04
:1006F40000F2B88001A252F823F000BFE10700081D
:100704006908000869080008690800086908000801
:1007140069080008690800086908000869080008F1
:10072400690800086908000885070008AD07000883
:1007340069080008690800086908000869080008D1
:1007440069080008690800086908000869080008C1
:1007540069080008690800086908000869080008B1
:1007640069080008690800082B08000869080008DF
:10077400690800086908000869080008E10700081A
:100784003B6804333B603B68043B1B6887F83330A9
:1007940097F8333007F12002B968F868FFF7B6FE1E
:1007A400FB6B0133FB6373E03B6804333B603B68E2
:1007B400043B1B68FB6207F114030A22F96A18461A
:1007C400FFF7E4FEB86307F12002BB6BB968F86871
:1007D400FFF7BAFEFB6B0133FB6359E03B6804335C
:1007E4003B603B68043B1B68BB6207F114031022A7
:1007F400B96A1846FFF7CAFEB863FB6B01337A681F
:1008040013441B78582B03D107F114030233BB6341
:1008140007F12002BB6BB968F868FFF795FEFB6B24
:100824000133FB6334E03B6804333B603B68043BC7
:100834001B687B627B6ABB63BB6B002B07D107F130
:1008440020021D4BB968F868FFF77EFE06E007F149
:100854002002BB6BB968F868FFF776FEFB6B0133C7
:10086400FB6315E07A68FB6B13441B7807F12002E5
:10087400B968F868FFF74AFE00BF09E07A68FB6BC5
:1008840013441B7807F12002B968F868FFF73EFEAD
:10089400FB6B0133FB63FA6B7B6B9A42FFF40AAF89
:1008A400BB68013BFA68134400221A703B6A18467D
:1008B4004037BD4680BD00BF4018000880B582B0F7
:1008C40000AF4FF4A06000F0C1FD25233B7101236C
:1008D4007B710123BB710123FB713B1D184600F0A2
:1008E400C7FD00BF0837BD4680BD00BF80B586B0D8
:1008F40000AF0121042000F08BFD01214FF4804062
:1009040000F086FD4FF40073BB821823FB750323AC
:10091400BB7507F114031946174800F00DFC4FF49A
:100924008063BB820423FB7507F114031946124844
:1009340000F002FC4FF4E1337B6000233B81002391
:100944007B810023BB8100233B820C23FB813B1D65
:1009540019460A4800F0EEFDFFF7B0FF012240F20D
:100964002551064800F0C0FE0121044800F09CFE19
:1009740000BF1837BD4680BD000801400038014063
:1009840080B582B000AF78600B46FB70FB789BB2F9
:100994001946786800F0F0FE00BF8021786800F006
:1009A4000DFF0346002BF8D000BF0837BD4680BDBD
:1009B40080B584B000AF786039600023FB603A688A
:1009C400FB6813441B7819467868FFF7D9FFFB6866
:1009D4000133FB603A68FB6813441B78002BEED1AB
:1009E40000BF4021786800F0E9FE0346002BF8D0F0
:1009F40000BF1037BD4680BD80B582B000AF03464E
:100A0400FB71FB7919460348FFF7BAFF00BF0837AB
:100A1400BD4680BD0038014080B582B000AF78602B
:100A240079680448FFF7C4FF00BF18460837BD467D
:100A340080BD00BF0038014080B582B000AF1F48C0
:100A440000F0ACFE0346DBB2FB80FB880A2B30D0FF
:100A54001B4B1B68FF2B09D1FB880D2B06D01948B3
:100A6400FFF7DAFF164B00221A6023E0FB880D2BF8
:100A74000ED1134B1B68144A0021D154124800F0C4
:100A8400F9F90F4B00221A601048FFF7C5FF11E077
:100A94000B4B1B68FA88D1B20B4AD154084B1B6824
:100AA4000133074A1360FB88DBB21846FFF7A4FF43
:100AB40000E000BF0837BD4680BD00BF00380140DC
:100AC4005400002048180008580000205818000856
:100AD4000EB480B5B7B000AF786007F10803C82240
:100AE40000211846FFF7D2FC07F1E803C7F8D43019
:100AF400D7F8E42007F10800D7F8D430C821FFF76D
:100B0400BDFD0346C7F8D030184B1B687A689A427B
:100B140004D807F108031846FFF77EFF144B1B683F
:100B2400C3F57F730333D7F8D020934202D2104B1E
:100B340000221A600E4B1B680E4A9818D7F8D03062
:100B44005A1C07F108031946FFF7BEFC084B1A6844
:100B5400D7F8D03013440133054A136000231846F4
:100B6400DC37BD46BDE8804003B07047000000207C
:100B7400580500205801002080B485B000AF78608B
:100B840039607B68FB60FB683A681A6000BF143701
:100B9400BD4680BC704700BF80B485B000AF7860AC
:100BA4007B68FB60FB681B68BB60BB681846143736
:100BB400BD4680BC704700BF80B582B000AF0A4B11
:100BC4005B681846FFF772FB78607868FFF7E4FF0C
:100BD40038603B687A6805490020FFF779FF0023F5
:100BE40018460837BD4680BD5C0500205C19000826
:100BF40080B582B000AF0D4B5B681846FFF756FB1B
:100C040078600A4B9B681846FFF750FB38603968D8
:100C14007868FFF7B1FF7B683A6805490020FFF761
:100C240057FF002318460837BD4680BD5C050020E9
:100C34006C19000890B58DB004AF1D4B5B68184665
:100C4400FFF734FBF8611A4B9B681846FFF72EFB3D
:100C5400B861174BDB681846FFF728FB7861144B23
:100C64001B691846FFF722FB3861114B5B69184674
:100C7400FFF71CFBF860FB69BB60BC68FB683A6962
:100C84007969B869A04778607B680393FB6802932D
:100C94003B6901937B690093BB69FA6905490020AC
:100CA400FFF716FF7B6818462437BD4690BD00BF8A
:100CB4005C0500208019000880B584B000AF154B96
:100CC4005B681846FFF7F2FAB860124B9B68184647
:100CD400FFF7ECFA7860BB683B600023FB6010E030
:100CE400FB689B003A68D118FB689B003A68134480
:100CF4001B680A4608490020FFF7EAFEFB68013337
:100D0400FB60FA687B689A42EAD3002318461037DE
:100D1400BD4680BD5C050020B019000880B582B0D6
:100D240000AF00237B6018E010497A6813465B002B
:100D340013449B000B4418680C497A6813465B0003
:100D440013449B000B4408331B68024608490020E7
:100D5400FFF7BEFE7B6801337B607B68042BE3D91D
:100D6400002318460837BD4680BD00BF040000209C
:100D7400EC19000880B584B000AF78601C22002113
:100D84002848FFF783FB0023BB600023FB6024E0BB
:100D9400FB680133FB607A68FB6813441B78202BE3
:100DA400F6D0BB685A1CBA607968FA680A441D49CF
:100DB40041F82320BB68072B16D002E0FB680133FF
:100DC400FB607A68FB6813441B78202B05D07A6893
:100DD400FB6813441B78002BF0D17A68FB6813443A
:100DE4001B78002BD7D100E000BF0023FB600DE08F
:100DF4007A68FB6813441B78202B04D17A68FB685B
:100E0400134400221A70FB680133FB607A68FB68A4
:100E140013441B78002BEBD1002318461037BD4632
:100E240080BD00BF5C05002080B584B000AF786051
:100E34000023FB6013E00E49FA6813465B00134479
:100E44009B000B441B6879681846FFF7DFF90346DB
:100E5400002B01D1FB6807E0FB680133FB60FB68F2
:100E6400042BE8D94FF0FF3318461037BD4680BD38
:100E74000400002080B586B000AF78607868FFF782
:100E8400AFF978617B69002B01D100232BE018496D
:100E94000020FFF71DFE7868FFF76CFF154B1B68F9
:100EA4001846FFF7C1FF03463B613B69B3F1FF3FBF
:100EB40008D1104B1B681A460F490020FFF708FEA3
:100EC400002310E00D493A6913465B0013449B006C
:100ED4000B4404331B689847F860FA6808490020FB
:100EE400FFF7F6FD002318461837BD4680BD00BF46
:100EF400F81900085C050020FC1900080400002013
:100F0400101A000880B500AF114A114B1B6843F05A
:100F1400080313600F4A0F4B1B6823F00F03136081
:100F24000C4A0C4B1B6843F0010313600A4A0A4B3A
:100F34001B6823F001031360FFF7D8FC0749084836
:100F4400FFF736FD07490020FFF7C2FDFEE700BFAB
:100F540018100240000C01400C0C0140401A00081B
:100F640000380140501A000880B400AF00BFBD46ED
:100F740080BC704780B400AFFEE700BF80B400AF10
:100F8400FEE700BF80B400AFFEE700BF80B400AF4F
:100F9400FEE700BF80B400AF00BFBD4680BC704711
:100FA40080B400AF00BFBD4680BC704780B400AFC2
:100FB40000BFBD4680BC704780B400AF00BFBD46D3
:100FC40080BC704780B500AF154A154B1B6843F0D1
:100FD400010313601249124B5A68124B13404B60C1
:100FE4000F4A0F4B1B6823F0847323F48033136080
:100FF4000B4A0B4B1B6823F480231360084A084BED
:101004005B6823F4FE035360054B4FF41F029A60A0
:1010140000F00CF8044B4FF000629A6000BF80BDF2
:10102400001002400000FFF800ED00E080B500AFC2
:1010340000F002F800BF80BD80B483B000AF00238D
:101044007B6000233B603A4A394B1B6843F480338E
:101054001360374B1B6803F400333B607B68013338
:101064007B603B68002B03D17B68B3F5A06FF0D1A4
:101074002F4B1B6803F40033002B02D001233B6089
:1010840001E000233B603B68012B4BD1294A294BEB
:101094001B6843F010031360264A264B1B6823F099
:1010A40003031360234A234B1B6843F002031360BA
:1010B4001F4A1F4B5B6853601D4A1D4B5B6853609E
:1010C4001B4A1B4B5B6843F480635360184A184BFC
:1010D4005B6823F47C135360154A154B5B6843F437
:1010E400E8135360124A124B1B6843F08073136079
:1010F40000BF0F4B1B6803F00073002BF9D00C4AA0
:101104000B4B5B6823F003035360094A084B5B688D
:1011140043F00203536000BF054B5B6803F00C030C
:10112400082BF9D100BF0C37BD4680BC704700BF07
:10113400001002400020024080B489B000AF786003
:1011440039600023FB6100233B610023BB61002362
:10115400FB6000237B610023BB603B68DB7803F00A
:101164000F03FB613B68DB7803F01003002B05D011
:101174003B689B781A46FB691343FB613B681B88F9
:10118400DBB2002B44D07B681B687B610023BB610E
:1011940038E00122BB6902FA03F3FB603B681B8859
:1011A4001A46FB6813403B613A69FB689A4226D1B0
:1011B400BB699B00FB600F22FB6802FA03F3BB6070
:1011C400BB68DB437A6913407B61FA69FB6802FA06
:1011D40003F37A6913437B613B68DB78282B05D1E1
:1011E4000122BB699A407B685A6108E03B68DB785E
:1011F400482B04D10122BB699A407B681A61BB6900
:101204000133BB61BB69072BC3D97B687A691A6058
:101214003B681B88FF2B46D97B685B687B61002396
:10122400BB613AE0BB690833012202FA03F3FB60B5
:101234003B681B881A46FB6813403B613A69FB68AC
:101244009A4227D1BB699B00FB600F22FB6802FA1C
:1012540003F3BB60BB68DB437A6913407B61FA69C3
:10126400FB6802FA03F37A6913437B613B68DB781A
:10127400282B05D1BB69083301229A407B685A6147
:101284003B68DB78482B05D1BB69083301229A40BF
:101294007B681A61BB690133BB61BB69072BC1D988
:1012A4007B687A695A6000BF2437BD4680BC7047AA
:1012B40080B487B000AF786000237B6100233B617A
:1012C4000023FB600023BB604C4B5B6803F00C0302
:1012D4007B617B69042B07D0082B09D0002B33D109
:1012E4007B68474A1A6033E07B68454A1A602FE0FE
:1012F400424B5B6803F470133B61404B5B6803F43F
:101304008033FB603B699B0C02333B61FB68002B21
:1013140006D13B693B4A02FB03F27B681A6017E083
:10132400364B5B6803F40033002B06D03B69354A27
:1013340002FB03F27B681A600AE03B69304A02FB55
:1013440003F27B681A6003E07B682D4A1A6000BFD1
:101354002A4B5B6803F0F0037B617B691B097B61AB
:10136400294A7B6913441B78DBB2BB607B681A682B
:10137400BB68DA407B685A60204B5B6803F4E06327
:101384007B617B691B0A7B611F4A7B6913441B7861
:10139400DBB2BB607B685A68BB68DA407B689A60E2
:1013A400164B5B6803F460537B617B69DB0A7B61EA
:1013B400154A7B6913441B78DBB2BB607B685A68AF
:1013C400BB68DA407B68DA600C4B5B6803F440432B
:1013D4007B617B699B0B7B610C4A7B6913441B78A3
:1013E400DBB2BB607B68DA68BB68B2FBF3F27B6894
:1013F4001A6100BF1C37BD4680BC70470010024014
:1014040000127A0000093D00400000205000002036
:1014140080B483B000AF78600B46FB70FB78002B80
:1014240006D00949084B9A697B6813438B6106E02F
:101434000549054B9A697B68DB4313408B6100BF08
:101444000C37BD4680BC70470010024080B483B0A6
:1014540000AF7860054A7B6843F0BF6343F4003310
:10146400D36000BF0C37BD4680BC704700ED00E080
:1014740080B487B000AF786000237B6100233B61B8
:101484000F23FB607B68DB78002B3AD0274BDB68AB
:10149400DB4303F4E0631B0A7B617B69C3F1040350
:1014A4003B61FA687B6922FA03F3FB607B685B7833
:1014B4001A463B6902FA03F37B617B689B781A4600
:1014C400FB6813407A6913437B617B691B017B6171
:1014D400174A7B681B787969C9B213440A4683F8B2
:1014E4000023134A7B681B785B09DBB218467B68D0
:1014F4001B7803F01F03012101FA03F342F82030A3
:101504000FE00B497B681B785B09DBB218467B68EC
:101514001B7803F01F0301229A4000F1200341F8D5
:10152400232000BF1C37BD4680BC704700ED00E09F
:1015340000E100E080B58CB000AF78603960002332
:10154400FB620023BB6200237B6200233B62002317
:10155400FB617B68FB617B681B8A9BB2FB62FA6A56
:101564004CF6FF731340FB623B68DB881A46FB6A48
:101574001343FB62FB6A9AB27B681A827B689B897D
:101584009BB2FB62FA6A4EF6F3131340FB623B68AC
:101594009A883B681B8913439AB23B685B8913435F
:1015A4009BB21A46FB6A1343FB62FB6A9AB27B68DE
:1015B4009A817B689B8A9BB2FB62FA6A4FF6FF436F
:1015C4001340FB623B689B891A46FB6A1343FB6228
:1015D400FB6A9AB27B689A8207F108031846FFF700
:1015E40067FEFB692E4A934202D17B69BB6201E02C
:1015F4003B69BB627B689B899BB21BB2002B0CDAF4
:10160400BA6A13469B0013449A001A443B681B6849
:101614005B00B2FBF3F37B620BE0BA6A13469B00F8
:1016240013449A001A443B681B689B00B2FBF3F313
:101634007B627B6A1B4AA2FB03235B091B01FB62DF
:10164400FB6A1B09642202FB03F37A6AD31A3B6226
:101654007B689B899BB21BB2002B0CDA3B6ADB00D4
:101664003233104AA2FB03235B0903F00703FA6A2F
:101674001343FB620BE03B6A1B013233094AA2FBB2
:1016840003235B0903F00F03FA6A1343FB62FB6A4B
:101694009AB27B681A8100BF3037BD4680BD00BF57
:1016A400003801401F85EB5180B483B000AF7860EF
:1016B4000B46FB70FB78002B08D07B689B899BB2A0
:1016C40043F400539AB27B689A8107E07B689B8954
:1016D4009BB223F400539AB27B689A8100BF0C3703
:1016E400BD4680BC704700BF80B487B000AF78604F
:1016F4000B467B8013467B7000233B610023FB6019
:101704000023BB6000237B617B687B617B88DBB249
:101714005B09DBB23B617B8803F01F03FB600122A2
:10172400FB6802FA03F3BB603B69012B03D17B69BD
:101734000C337B6109E03B69022B03D17B691033D5
:101744007B6102E07B6914337B617B78002B06D0DC
:101754007B697A691168BA680A431A6006E07B6992
:101764007A691168BA68D2430A401A6000BF1C370C
:10177400BD4680BC704700BF80B483B000AF7860C2
:101784000B467B807B88C3F308039AB27B689A80FC
:1017940000BF0C37BD4680BC704700BF80B483B027
:1017A40000AF78607B689B889BB2C3F308039BB24D
:1017B40018460C37BD4680BC704700BF80B485B066
:1017C40000AF78600B467B800023FB737B681B882B
:1017D4009AB27B8813409BB2002B02D00123FB7387
:1017E40001E00023FB73FB7B18461437BD4680BC25
:1017F400704700BF002103E00A4B5B58435004319B
:1018040009480A4B42189A42F6D3094A02E00023D7
:1018140042F8043B074B9A42F9D3FFF7D3FBFFF797
:1018240071FB7047601A000800000020540000207B
:101834005400002078050020FEE70000286E756C37
:101844006C290000636D6420746F6F206C6F6E6789
:10185400210A00000A75746C6F616465723E0000B1
:101864007200000072202020205B616464725D209D
:1018740020202020202020202020202020207265CD
:10188400616420202020616E79206164647200000C
:101894007700000077202020205B616464725D2063
:1018A4005B646174615D20202020202020207772F9
:1018B400697465202020616E79206164647200007F
:1018C4007800000078202020205B616464725D2031
:1018D4002020202020202020202020202020657867
:1018E400656375746520616E7920616464720000BB
:1018F40064756D700000000064756D70205B616438
:1019040064725D205B776F72645F6E756D5D20201D
:10191400202064756D7020202020616E7920616420
:101924006472000068656C700000000068656C708B
:1019340020202020202020202020202020202020A3
:101944002020202020207072696E7420636D642032
:10195400696E666F000000005B307825785D3A2080
:10196400307825780A000000283078257829202D41
:101974003E5B307825785D0A000000006578656379
:1019840075746520307825782028307825782030C3
:101994007825782030782578203078257829726564
:1019A4007475726E20307825780A00005B307825D3
:1019B400585D3A20307825580D0A0000617373652C
:1019C400727420283029206661696C6564210A00DC
:1019D4006472697665722F7368656C6C2F736865C1
:1019E4006C6C2E630000000025733A090909257305
:1019F4000A0000000A000000696C6C6567616C20D5
:101A0400636D64205B25735D200A00007265747544
:101A1400726E20307825780A00000000636D645FE0
:101A240072657365740000005B25735D5B25735DEF
:101A34005B25645D3A2025730A00000074657374A5
:101A4400313131313131313131310A0068656C6CF9
:0C1A54006F2C20776F726C64210A000078
:101A60000300000064180008BD0B00086818000897
:101A700094180008F50B000898180008C41800080E
:101A8000390C0008C8180008F4180008BD0C00083C
:101A9000FC18000828190008210D0008301900085A
:101AA0000000000001020304010203040607080904
:041AB000020406081E
:04000005080001E40A
:00000001FF
